:020000040800F2
:10000000205900205D020008694C0008E743000801
:10001000C14B0008CD080008E15F000800000000A7
:100020000000000000000000000000009D0100082A
:100030004D10000800000000F901000821540008DC
:1000400077020008770200087702000877020008AC
:10005000770200087702000877020008770200089C
:10006000770200087702000877020008BD0B00083D
:10007000CD0B0008DD0B0008ED0B0008FD0B0008A0
:100080000D0C00081D0C000877020008B5090008D7
:100090008509000895090008A509000877020008ED
:1000A0001D55000877020008770200087702000853
:1000B0002D5500083D5500084D55000877020008F1
:1000C000770200087702000877020008770200082C
:1000D00077020008F55E0008095F0008195F000854
:1000E0007702000877020008770200086D550008C3
:1000F0007702000877020008770200082D0C00083C
:1001000077020008770200085D55000877020008B2
:1001100095580008A55800087702000877020008E3
:10012000770200083D0C00084D0C0008770200081B
:10013000770200087702000877020008A90A000881
:10014000790A0008890A0008990A0008770200085D
:10015000770200085D0C00086D0C0008295F00089C
:10016000770200087702000877020008770200088B
:1001700077020008770200087702000800000000FC
:100180007702000877020008DFF80CD000F08CFB43
:100190000048004709680008205900202C4B1968C6
:1001A0000868B0E8F04F80F30988BFF36F8F4FF015
:1001B000000080F3118870470000000008480068C4
:1001C000006880F308884FF0000080F3148862B65E
:1001D00061B6BFF34F8FBFF36F8F00DF00BF00BF6B
:1001E00008ED00E0DFF80C00016841F470010160E7
:1001F000704700BF88ED00E0EFF30980BFF36F8F19
:10020000134B1A681EF0100F08BF20ED108A20E96A
:10021000F04F106009B44FF0500080F31188BFF325
:100220004F8FBFF36F8F07F0CBFF4FF0000080F3CD
:10023000118809BC19680868B0E8F04F1EF0100F6B
:1002400008BFB0EC108A80F30988BFF36F8F704746
:1002500030000020EFF3058070470000064880471B
:1002600006480047FEE7FEE7FEE7FEE7FEE7FEE79B
:10027000FEE7FEE7FEE7FEE70955000889010008F2
:100280002DE9F05F0546002092469B4688460646CB
:10029000814640241BE0284641464746224600F05E
:1002A0004CFA53465A46C01A914110D3114618468B
:1002B000224600F033FA2D1A67EB01084F4622461A
:1002C0000120002100F02AFA17EB00094E41201E00
:1002D000A4F10104DFDC484631462A464346BDE826
:1002E000F09F40EA01039B0703D009E008C9121FF1
:1002F00008C0042AFAD203E011F8013B00F8013BE0
:10030000521EF9D27047D2B201E000F8012B491E0B
:10031000FBD270470022F6E710B513460A460446A2
:100320001946FFF7F0FF204610BD2DE9FE4F80462D
:1003300081EA0300C00F0C46009021F0004123F039
:100340000045B8EB0200A94105D24046214690463F
:100350001C460B46024623F00040104347D0270DB1
:10036000C7F30A00C3F30A510290401A01904028D3
:100370006BDAC3F3130040F4801B0098924620B15F
:100380000023D2EB030A63EB0B0B01985946C0F133
:100390004002504600F0C2F906460D465046594606
:1003A000019A00F0DAF910EB08006141002487EAB5
:1003B000115284EAE7731A4340D0009A62B3019A5B
:1003C000012A4FEA075215DC001B61EB02014FF0D6
:1003D000004202EA0752CDE90042001C41F58011BB
:1003E00032462B4600F011FA03B0BDE8F08F4046CC
:1003F0002146F9E7001B61EB0201001C41F5801367
:1004000000185B412018A2F5001747EB030140EAF2
:10041000D570B6196D4111E06D084FEA360645EA10
:10042000C0754FEA0752001B61EB0201001C41F549
:10043000801149084FEA30000019514132462B46DD
:1004400003B0BDE8F04F00F0D1B9009801224000A0
:100450000023D0EB020263EBE073009821464FEAE1
:10046000E074B8EB000061EB0401E9E783F00043BE
:100470005BE781F0004158E72DE9FE4F81EA030474
:1004800004F0004421F0004100944FF0000B23F0F1
:10049000004350EA01045ED052EA03045BD0C3F388
:1004A0000A54C1F30A552C44A4F2F3340194A0FB7E
:1004B0000254C1F3130141F48011C3F3130343F455
:1004C000801301FB024400FB034E840A970A44EAAE
:1004D000815447EA8357A4FB076802958D0A05FB00
:1004E00007854FEA932C04FB0C542705029D4FEA25
:1004F000065847EA1637B5EB08056EEB070C870E72
:10050000920E47EA811742EA8312A7FB0201B6EB7B
:100510000B0164EB00042B0D43EA0C335E1844EB33
:100520001C50DA465146E7FB0201C5F313044FEABB
:100530000B3343EA14534FEA0432019C43EA0603A7
:10054000A4F10C040294009CCDE900B400F05DF924
:1005500003B0BDE8F08F00200146F9E72DE9F04D2A
:1005600081EA030404F0004B21F0004514464FF0EB
:10057000000A23F0004150EA050220D054EA0102AB
:100580001DD0C5F30A570246C5F31303C1F3130088
:10059000C1F30A5640F4801543F48013A7EB060814
:1005A000101BD64608F2FD3873EB050002D308F1A4
:1005B000010801E092185B41B8F1000F03DA002056
:1005C0000146BDE8F08D00204FF4801106468446B8
:1005D0000EE0171B73EB050705D3121B63EB050336
:1005E00006434CEA010C49084FEA300092185B417F
:1005F00050EA0107EDD152EA030012D082EA04006A
:1006000083EA0501084305D0101BAB4106D2012245
:10061000002306E000224FF0004302E06FF00102E9
:1006200053101AEB06004CEB085110EB0A0041EB9B
:100630000B01BDE8F04D00F0D9B80EB5C10F80EA4E
:10064000E0700844CA07002140F233438DE80E00F1
:100650000A460B4600F0D9F803B000BD00F0004296
:1006600030F000400AD0C10D01F56071C0F31600F2
:1006700042EA0151C2084007114370470020014679
:100680007047000030B5041E71F1000404DB4FF028
:100690000044404264EB0101141E73F1000405DBC9
:1006A0001C464FF00043524263EB04038B4208BFE9
:1006B000824230BD30B5041E71F1000404DB4FF0FE
:1006C0000044404264EB0101141E73F1000405DB99
:1006D0001C464FF00043524263EB0403994208BFAB
:1006E000904230BD01F0004330B421F0004150EAA7
:1006F000010206D00A0DA2F56072C1F31301002AAF
:1007000002DC30BC00207047440F44EAC104C10041
:10071000E01830BC00EBC25000F031B8202A04DBF6
:10072000203A00FA02F1002070479140C2F1200304
:1007300020FA03F3194390407047202A04DB203A43
:1007400021FA02F00021704721FA02F3D040C2F1F1
:1007500020029140084319467047202A06DBCB1738
:10076000203A41FA02F043EAE07306E041FA02F36C
:10077000D040C2F120029140084319467047002939
:10078000A8BF7047401C490008BF20F00100704717
:1007900010B4B0FA80FC00FA0CF050EA010404BF77
:1007A00010BC704749B1CCF1200421FA04F411FACD
:1007B0000CF118BF012121430843A3EB0C01CB1D11
:1007C0004FEA00614FEA102042BF002010BC704782
:1007D00000EBC35010440029A4BF10BC7047401C5C
:1007E000490008BF20F0010010BC704710B5141E6E
:1007F00073F1000408DA401C41F1000192185B41DA
:100800001A4301D120F0010010BD2DE9F04D9246B0
:100810009B4611B1B1FA81F202E0B0FA80F22032C7
:100820009046FFF77BFF04460F4640EA0A0041EA84
:100830000B0153465A46084313D0114653EA0100B0
:1008400019D0C8F140025046FFF777FF05460E4623
:10085000504659464246FFF761FF084305D0012044
:1008600004E020463946BDE8F08D0020054346EA05
:10087000E0762C4337430A986305E40AA0EB0800AE
:100880000022FD0A44EA47540A3002D500200146FE
:10089000E9E7010510196941DDE9084500196941D9
:1008A000BDE8F04DA2E70000064C074D06E0E06809
:1008B00040F0010394E8070098471034AC42F6D3A7
:1008C000FFF766FC649400088494000800BFFEE70C
:1008D00070B506460C4615462846E91705EB91719A
:1008E000891061610020206101202062214630468C
:1008F00000F010FF70BD2DE9F04107460E46154689
:10090000002436E02046E11704EB91718910A4EB36
:10091000810131B1012909D002290CD0032919D153
:100920000EE055F824004001306013E055F8240033
:10093000400170600EE055F824004001B06009E00D
:1009400055F824004001F060224631463846FFF752
:10095000BFFF00BF00BF601C55F8200040F6FF71CC
:10096000884204D1224631463846FFF7B1FF601C69
:10097000C4B255F8240040F6FF718842C2D1BDE8E8
:10098000F081000010B5024801F03CF810BD0000F5
:10099000AC07002010B5024801F034F810BD00008B
:1009A000AC07002010B5024801F02CF810BD000083
:1009B000AC07002010B5024801F024F810BD00007B
:1009C000AC07002070B506460C4615462846E917C8
:1009D00005EB917189100E31616101202061206267
:1009E0002146304600F096FE70BD2DE9F0410746E5
:1009F0000E461546002436E02046E11704EB9171BF
:100A00008910A4EB810131B1012909D002290CD050
:100A1000032919D10EE055F824004001306013E09D
:100A200055F82400400170600EE055F824004001A4
:100A3000B06009E055F824004001F06022463146DC
:100A40003846FFF7BFFF00BF00BF601C55F820000D
:100A500040F6FF71884204D1224631463846FFF7FE
:100A6000B1FF601CC4B255F8240040F6FF71884203
:100A7000C2D1BDE8F081000010B5024800F0C2FF0D
:100A800010BD0000D407002010B5024800F0BAFFE6
:100A900010BD0000D407002010B5024800F0B2FFDE
:100AA00010BD0000D407002010B5024800F0AAFFD6
:100AB00010BD0000D407002030B58BB004460D46B1
:100AC00001200790002008900E200A900A49206813
:100AD000884205D12A4601A92046FFF70CFF08E00D
:100AE00006492068884204D12A4601A92046FFF71A
:100AF0007CFF0BB030BD0000006400400068004087
:100B000000B58BB014220B4906A8FFF7EAFB1822A8
:100B1000084914316846FFF7E4FB074A06A907486D
:100B200005F020FC064A6946064805F01BFC0BB0A0
:100B300000BD0000E0930008E55F0008AC0700205E
:100B400081600008D407002086B000BF4FF0FF325C
:100B50000121684605F0EAFE9DE8070003AB07C3E4
:100B600003980828F2D107F0BBF8049800F00100C0
:100B700058B1002000901048B0F90220B0F90010E0
:100B800000234FF4007005F051FB049800F00200C0
:100B900018B9049800F0040058B1002000900648ED
:100BA000B0F90630B0F90420002140F2FF1005F042
:100BB0008DFB07F0BFF8C9E7BC00002010B5024864
:100BC00001F0C4FA10BD0000D40B002010B502489B
:100BD00001F0BCFA10BD0000140E002010B5024850
:100BE00001F0B4FA10BD0000140B002010B502484B
:100BF00001F0ACFA10BD0000740E002010B50248E0
:100C000001F0A4FA10BD0000740B002010B50248DA
:100C100001F09CFA10BD0000540D002010B50248F0
:100C200001F094FA10BD0000B40D002010B5024888
:100C300001F08CFA10BD0000340C002010B5024801
:100C400001F084FA10BD0000340F002010B50248F6
:100C500001F07CFA10BD0000940C002010B5024891
:100C600001F074FA10BD0000D40E002010B5024847
:100C700001F06CFA10BD0000F40C00200146087869
:100C800010381823B0FBF3F20848805CC865032ACB
:100C900005D908686FF30900001D886503E008683E
:100CA0006FF309008865886D70470000C0930008E5
:100CB000014600208A6A8B69CBB932B1012A0DD076
:100CC000022A03D0032A10D10EE000BFCB6A03F042
:100CD0008073B3F1807F00D1012007E0CB6AB3F1CC
:100CE000C07F00D1012001E000E000BF34E08B694B
:100CF000B3F5005F1AD132B1012A07D0022A03D01E
:100D0000032A11D10AE000BF01200EE0CB6A03F0F4
:100D10008073B3F1807F00D1012006E0CB6AB3F18C
:100D2000C07F00D1012000E000BF15E032B1012AF0
:100D300005D0022A04D0032A0CD103E000BF00BF73
:100D4000012008E0CB6A03F08073B3F1807F00D10B
:100D5000012000E000BF00BF704730B50468246880
:100D600024F4802405682C60046863608468402C47
:100D700004D10468A2600468E16003E00468A16033
:100D80000468E26030BD000010B501460F2900DCA8
:100D900009B9002010BD042202EB8102D0B2002369
:100DA000074C04F821308A00521CA35480238A0087
:100DB000921CA3547F238A00D21CA35400BFE9E7EE
:100DC000314E002010B52DED020B0C4890F841007B
:100DD000401C0A4981F84100084690F841000F285C
:100DE00000DD1CBD054890F84100401E8006020E43
:100DF0000249684600F043F900BFF2E7314E002097
:100E000010B5044600F026F8114991F84100FFF7AB
:100E1000BBFF0F4981F8400000200CE000BF2168B3
:100E2000096801F040010029F9D00949095C2268EC
:100E30005160411CC8B2064991F840108142EDDC76
:100E40000020034981F8410081F8400010BD0000F6
:100E5000314E002010B57448007820B1012851D0DF
:100E600002284ED19AE07148D0ED010AB0EE600A36
:100E7000FFF7A8FF6D48D0ED030AB0EE600AFFF758
:100E8000A1FF6A48B0F9140000EE900AF8EEE00AFB
:100E9000B0EE600AFFF796FF6548D0ED090AB0EEA4
:100EA000600AFFF78FFF6248D0ED0A0AB0EE600AD1
:100EB000FFF788FF5D48D0ED020AB0EE600AFFF749
:100EC00081FF5A48D0ED040AB0EE600AFFF77AFFBE
:100ED0005648B0F9160000EE900AF8EEE00AB0EEBF
:100EE000600AFFF76FFF5248D0ED2B0AB0EE600AA0
:100EF000FFF768FF4E48D0ED2C0AB0EE600AFFF70E
:100F000061FF8FE04B48D0ED040AF8EEE00AB0EE46
:100F1000600AFFF757FF4748D0ED050AF8EEE00AF0
:100F2000B0EE600AFFF74EFF4248D0ED000AB0EE87
:100F3000600AFFF747FF3F48D0ED010AB0EE600AB4
:100F4000FFF740FF9FED3C0AFFF73CFF3948B0F93F
:100F5000180000EE900AF8EEE00AB0EE600AFFF723
:100F600031FF3648007800EE100AB8EE400AFFF76D
:100F700029FF3348807D00EE900AF8EE600AB0EE5B
:100F8000600AFFF71FFF2B48807E00EE900AF8EE04
:100F9000600AB0EE600AFFF715FF43E02848D0ED85
:100FA000020AB0EE600AFFF70DFF2548D0ED030AF4
:100FB000B0EE600AFFF706FF2148D0ED000AB0EE60
:100FC000600AFFF7FFFE1E48D0ED010AB0EE600A8E
:100FD000FFF7F8FE1A48B0F9140000EE900AF8EE98
:100FE000E00AB0EE600AFFF7EDFE1648D0ED0A0AFF
:100FF000B0EE600AFFF7E6FE1248D0ED090AB0EE47
:10100000600AFFF7DFFE1048D0ED0A0AB0EE600A72
:10101000FFF7D8FE0C48D0ED090AB0EE600AFFF7E2
:10102000D1FE00BF00BF10BDDD0000201050002029
:10103000004F002028500020DFE1904BFD000020F1
:10104000E0510020F851002080520020704700003D
:1010500008B505F031FC00900AE006F041FE0548B5
:10106000FFF7CEFE06F066FE0221684605F011FC91
:10107000F3E700003C0A002072B600BFFEE730B57F
:1010800003461C788C545D78541C0D559D78941C37
:101090000D55DD78D41C0D5530BD00000249087097
:1010A000024908707047000010500020DC0000204A
:1010B00010B52248007898BB214890ED020ADFED78
:1010C000210AB4EEE00AF1EE10FA10D21E480078C0
:1010D000C0EB4030A0F55030083800F57A7000EED3
:1010E000100AB8EEC00A164880ED030A23E014483F
:1010F000D0ED020A14480078C0EB4030A0F5503023
:10110000083800EE100AB8EEC00AF4EEC00AF1EE9C
:1011100010FA10DD9FED0D0A094880ED030A0AE080
:10112000FFE706480078012805D1094890ED000A3C
:10113000034880ED030A00F039F910BDF4000020E7
:10114000E051002000084FC8FC000020000250C8F9
:10115000F800002010B52DED0A8B00F05FF8244850
:10116000807D05283DD2DFE800F006030A3839000B
:1011700000F06CF836E000201D49888232E01D49FD
:10118000B1F90200FFF759FA41EC1C0B9FED1A0B65
:1011900053EC102BFFF7E2F941EC1B0B9FED180B02
:1011A00053EC102BFFF768F941EC190B104890ED48
:1011B000030A10EE101A0846FFF750FA41EC1A0B1A
:1011C00053EC192BFFF752F941EC180BFFF78AFA91
:1011D0000749C86000F0EAF804E003E0FFF768FFA1
:1011E00000E000BF00BF00F00FF8BDEC0A8B10BD9F
:1011F000E0510020744E00200000000000F0844008
:10120000FCA9F1D24D6260400248808A0249888080
:1012100070470000E0510020BC0000200948B0F9F0
:10122000040000EE100AB8EEC00A074880ED000A7C
:10123000044890ED030AB8EEC00A034880ED020AA4
:1012400070470000E84E0020E051002010B51A4819
:101250000078B8B99FED190A194880ED010A90EDA0
:10126000011AF0EE410A90ED001AB0EE410A15485D
:1012700003F0FCFCBDEEC00A10EE100A00B21049EB
:10128000888218E00C480078012814D106F028FD67
:101290000D4800880C4908820020886006F04AFD4D
:1012A000002007498882084890ED030AB8EEC00A7A
:1012B000084680ED040A10BDC60000200000484426
:1012C000E0510020F8510020E84E0020052822D2ED
:1012D000DFE800F007030B191D0001210F4A91758B
:1012E00019E000210D4A917515E00D49B1F908107A
:1012F000B1F5167F03DD0221084A917502E0002155
:10130000064A917507E00321044A917503E0042120
:10131000024A917500BF00BF70470000E0510020F5
:10132000744E002010B50020184988752023DFED89
:10133000183A9FED173AF3EE042A9FED162ADFEDD7
:10134000141A9FED151ADFED150AB7EE000A1422E4
:1013500040F6FF71124803F041FD0123DFED0C3A26
:101360009FED0B3ADFED0A2A9FED092ADFED081AFF
:101370009FED071ADFED0B0A9FED050A002247F2E9
:101380003051094803F02AFD10BD0000E051002053
:10139000000000000000C8420AD7A33C6666863FF2
:1013A00080520020CDCC2042F851002010B5654875
:1013B00090ED030AB5EEC00AF1EE10FA09D890EDEF
:1013C000030ADFED610AB4EEE00AF1EE10FA00DB89
:1013D00011E05C4890ED030AB5EEC00AF1EE10FA98
:1013E00004DD9FED5A0A80ED030A04E09FED560AE2
:1013F000544880ED030A534890ED030AB5EEC00A45
:10140000F1EE10FA14DB90ED030AB1EE400AF0EEB3
:10141000401A90ED030AB0EE401A90ED030AF0EE88
:10142000400A4B4890ED000A4A4806F0A1F814E043
:10143000444890ED030AF0EE401A90ED030AB1EE35
:10144000400AB0EE401A90ED030AF0EE400A404820
:1014500090ED000A3F4806F08BF83E4890ED011AE7
:10146000F0EE410A374890ED021AB0EE410A3A48D0
:1014700003F0FCFB334880ED010A90ED010AB5EE64
:10148000C00AF1EE10FA25DB90ED010ADFED330A18
:10149000B4EEE00AF1EE10FA07D890ED010AB5EECD
:1014A000C00AF1EE10FA00DB38E0264890ED010AA0
:1014B000DFED2A0AB4EEE00AF1EE10FA04DD9FED4A
:1014C000270A80ED010A29E09FED200A1D4880EDE2
:1014D000010A23E01B4890ED010AB5EEC00AF1EEC7
:1014E00010FA09D890ED010ADFED1D0AB4EEE00A0A
:1014F000F1EE10FA00DB11E0124890ED010AB5EEB2
:10150000C00AF1EE10FA04DD9FED100A80ED010A29
:1015100004E09FED130A0B4880ED010A094890EDA5
:10152000011AF0EE410A90ED001AB0EE410A0D48A2
:1015300003F09CFBBDEEC00A10EE100A00B2014998
:10154000888210BDE0510020000250C80000000059
:10155000F000002008530020805200200000964335
:10156000000096C3F851002008B505F0A5F90090D9
:10157000FFF7D8FE0EE008480078FFF7A7FEFFF758
:10158000E9FD04210548006805F0A0F9022168463C
:1015900005F07FF9EFE70000FD00002004000020C7
:1015A00010B5024692F82030012B01D0022B06D153
:1015B00010684069084314686061002010BD506ADB
:1015C00040F4802050620120F8E7F0B504460D4653
:1015D0001E4694F8207020688368A86800B900E06F
:1015E00000BF012F01D0022F7DD103F0806030B900
:1015F00003F0006018B903F0805000287ED0C3F3D8
:101600000161012088403060A86860B9B5F800C069
:10161000E86840EA4C5C206800F5C07000EB0110FF
:10162000C0F800C00FE0D5E901C040EACC00D5F811
:101630000CC040EA0C00D4F800C00CF5C07C0CEBE8
:10164000011CCCF80000D5F810C0206800F5C0706F
:1016500000EB0110C0F804C0287D01280ED12068DD
:1016600000F5C07000EB0110406840F4807C2068F9
:1016700000F5C07000EB0110C0F804C0D07900067E
:1016800092F806C040EA0C4092F805C040EA0C20EF
:1016900092F804C040EA0C00D4F800C00CF5C07CFD
:1016A0000CEB011CCCF80C00D078000692F802C0BC
:1016B00040EA0C4092F801C040EA0C2092F800C0C9
:1016C00040EA0C00D4F800C00CF5C07C0CEB011C07
:1016D000CCF80800206800F5C07000EB011000682D
:1016E00040F0010C01E00FE008E0206800F5C07058
:1016F00000EB0110C0F800C00020F0BD606A40F4AB
:10170000001060620120F8E7606A40F480206062A7
:101710000120F2E7F0B504460A46216894F820500B
:10172000012D01D0022D7ED1424901F500710868DA
:1017300040F001000860086820F47C5008600868E8
:10174000566A40EA06200860107D00F01F0601205E
:1017500000FA06F3C8699843C861A1F50071D06921
:10176000C8B9D1F80C029843C1F80C02908880B235
:10177000968940EA064601F51070576940F83760CF
:10178000108880B2168940EA064601F51070576944
:1017900000EBC7004660D069012819D1D1F80C02CE
:1017A0001843C1F80C02908880B2168840EA0646B9
:1017B00001F51070576940F83760908980B216893A
:1017C00040EA064601F51070576900EBC700466015
:1017D000906928B9D1F804029843C1F8040204E0E2
:1017E000D1F804021843C1F80402106928B9D1F8ED
:1017F00014029843C1F8140204E0D1F8140218430B
:10180000C1F81402106A012804D1D1F81C0218434F
:10181000C1F81C02D1F8000220F00100C1F800025A
:101820000020F0BDFFE7606A40F480206062012084
:10183000F7E7000000640040704770B5044694F874
:101840002050012D01D0022D7DD151B92068C068F2
:1018500000F0030080B9606A40F40010606201206B
:1018600070BD2068006900F0030028B9606A40F488
:10187000001060620120F3E7206800F5D87000EBEB
:101880000110006800F004009060906840B9206882
:1018900000F5D87000EB01100068400D106007E003
:1018A000206800F5D87000EB01100068C008506097
:1018B000206800F5D87000EB0110006800F002000D
:1018C000D060206800F5D87000EB0110406800F08F
:1018D0000F00082802D30820106108E0206800F5F6
:1018E000D87000EB0110406800F00F001061206814
:1018F00000F5D87000EB0110406800F47F40000A4A
:101900009061206800F5D87000EB01104068000C71
:101910005061206800F5D87000EB011080681870E5
:10192000206800F5D87000EB0110806800F47F405B
:10193000000A5870206800F5D87000EB011080682C
:1019400000F47F0000E03CE0000C9870206800F597
:10195000D87000EB01108068000ED870206800F588
:10196000D87000EB0110C0681871206800F5D870BD
:1019700000EB0110C06800F47F40000A5871206835
:1019800000F5D87000EB0110C06800F47F00000C77
:101990009871206800F5D87000EB0110C068000E47
:1019A000D87131B92068C06840F020002668F06026
:1019B00005E02068006940F02000266830610020C2
:1019C0004EE7606A40F480206062012048E70146EB
:1019D000002091F82020012A01D0022A11D10B68A1
:1019E0009B6803F0806303B1401C0B689B6803F0A5
:1019F000006303B1401C0B689B6803F0805303B184
:101A0000401C70472DE9F05F0446002520684669B8
:101A10002068D0F80490206887682068D0F80CA06F
:101A20002068D0F810B02068D0F8188006F00100C7
:101A3000002855D007F00100C0B10120216888605E
:101A400007F0020018B1204600F00DFB0EE007F091
:101A5000040010B145F4006508E007F0080010B17B
:101A600045F4805502E0204600F0FCFA07F480704F
:101A7000C8B14FF480702168886007F4007018B115
:101A8000204600F0F2FA0EE007F4806010B145F451
:101A9000005508E007F4006010B145F4804502E00D
:101AA000204600F0E1FA07F48030C8B14FF48030EE
:101AB0002168886007F4003018B1204600F0D7FA9A
:101AC0000EE007F4802010B145F4004508E007F46B
:101AD000002010B145F4803502E0204600F0C6FA3F
:101AE00006F0080038B10AF0100020B145F4007586
:101AF00010202168C86006F0040040B10AF0080018
:101B000028B108202168C860204600F03FFA06F09E
:101B1000020038B12068C06800F0030010B1204610
:101B200000F036FA06F0400038B10BF0100020B19A
:101B300045F4806510202168086106F0200040B15E
:101B40000BF0080028B1082021680861204600F049
:101B50003BFA06F0100038B12068006900F003007D
:101B600010B1204600F032FA06F4003040B109F01E
:101B7000100028B1102021684860204600F042FA89
:101B800006F4803040B109F0080028B1082021682F
:101B90004860204600F06CFA06F4004088B309F073
:101BA000040078B306F4807020B108F0010008B199
:101BB00045F0010506F4007020B108F0020008B1FC
:101BC00045F0020506F4806020B108F0040008B179
:101BD00045F0040506F40060A0B108F0700088B17B
:101BE00008F07000402817D006DC10280BD0202801
:101BF0000CD0302819D10CE0502810D0602814D116
:101C000010E01DE019E045F008050FE045F0100573
:101C10000CE045F0200509E045F0400506E045F000
:101C2000800503E045F4807500E000BF00BF206838
:101C3000806920F070002168886104202168486074
:101C40002DB1606A284360622046FFF7F5FDBDE8CC
:101C5000F09F70B504460CB9012070BD94F82000C7
:101C600010B9204600F0B0F82068006840F001008C
:101C70002168086000F052FD05460DE000F04EFDC1
:101C8000401B0A2808D9606A40F4003060620520D1
:101C900084F820000120E0E72068406800F001009F
:101CA0000028EBD02068006820F00200216808605E
:101CB00000F034FD05460DE000F030FD401B0A2821
:101CC00008D9606A40F400306062052084F8200082
:101CD0000120C2E72068406800F002000028EBD134
:101CE000207E012806D12068006840F0800021682D
:101CF000086005E02068006820F080002168086026
:101D0000607E012806D12068006840F0400021680C
:101D1000086005E02068006820F040002168086045
:101D2000A07E012806D12068006840F020002168CC
:101D3000086005E02068006820F020002168086045
:101D4000E07E012806D12068006820F0100021689C
:101D5000086005E02068006840F010002168086015
:101D6000207F012806D12068006840F00800216823
:101D7000086005E02068006820F00800216808601D
:101D8000607F012806D12068006840F004002168C7
:101D9000086005E02068006820F004002168086001
:101DA000D4E9020108432169084361690843616875
:101DB000491E08432168C86100206062012084F840
:101DC0002000002049E7000010B586B00446142129
:101DD00001A8FEF79FFA67492068884259D16648F2
:101DE0000068401C644908600846006801280FD15B
:101DF00000BF002000906148006840F000705F491B
:101E000008600846006800F00070009000BF00BF46
:101E100000BF0020009059481038006840F00800CA
:101E20005649103908600846006800F00800009024
:101E300000BF00BF03200190022002900020039009
:101E4000032004900920059001A94D4800F05EFB95
:101E500000220521132000F029FD132000F012FDBF
:101E600000220521142000F021FD142000F00AFDBD
:101E700000220521152000F019FD152000F002FDBB
:101E800000220521162000F011FD162000F0FAFCBA
:101E90006DE03C492068884269D100BF0020009075
:101EA0003648006840F080603449086008460068A1
:101EB00000F08060009000BF00BF2F480068401C09
:101EC0002D4908600846006801280FD100BF002096
:101ED00000902A48006840F00070284908600846D1
:101EE000006800F00070009000BF00BF00BF00203D
:101EF000009022481038006840F002001F49103955
:101F000008600846006800F00200009000BF00BFB3
:101F10004FF44050019002200290002003900320D3
:101F200004900920059001A9174800F0EFFA00225B
:101F300005213F2000F0BAFC3F2000F0A3FC002266
:101F40000521402000F0B2FC402000F09BFC002264
:101F50000521412000F0AAFC412000F093FC002262
:101F60000521422000F0A2FC422000F08BFC06B0CC
:101F700010BD0000006400401C00002040380240FA
:101F8000000C02400068004000040240704700005E
:101F900010B504460949206888420DD1084BA3F1C9
:101FA0001C0200212046FFF748FC05491C3908683F
:101FB0001C31044A1268904710BD000000640040C4
:101FC000104E0020AC0000207047000010B5044601
:101FD0000949206888420DD1084BA3F11C02012158
:101FE0002046FFF72AFC05491C3908681C31044AC1
:101FF0001268904710BD000000680040104E00209D
:10200000B0000020704770B5044694F82000012805
:1020100022D1022084F820002068006820F001000E
:102020002168086000F07AFB05460DE000F076FBC1
:10203000401B0A2808D9606A40F40030606205201D
:1020400084F82000012070BD2068406800F0010085
:102050000028EBD16062F6E7606A40F4002060621D
:102060000120F0E77047704770477047704770472E
:10207000704770B50446A56D00F050FB064694F815
:102080003500022808D08020606500BF002084F859
:10209000340000BF012070BD2068006820F01600E9
:1020A000216808602068406920F08000216848614C
:1020B000206C08B9A06C28B12068006820F00800E6
:1020C000216808602068006820F00100216808602D
:1020D00010E000F023FB801B05280BD92020606551
:1020E000032084F8350000BF002084F8340000BFCE
:1020F0000320D0E72068006800F001000028E8D144
:1021000094F85C103F208840A860012084F83500D6
:1021100000BF002084F8340000BF00BFBBE70146C9
:1021200091F83500022803D08020486501207047CF
:10213000052081F835000868006820F001000A6871
:1021400010600020F3E70146486D7047F8B504467B
:10215000002000908C4800684FF41651B0FBF1F756
:10216000A56D2E6894F85C1008208840304098B126
:102170002068006800F0040070B12068006820F05A
:1021800004002168086094F85C1008208840A8606A
:10219000606D40F00100606594F85C10012088409B
:1021A000304068B12068406900F0800040B194F888
:1021B0005C1001208840A860606D40F002006065FE
:1021C00094F85C1004208840304068B120680068B2
:1021D00000F0020040B194F85C1004208840A86030
:1021E000606D40F00400606594F85C101020884039
:1021F000304078B32068006800F0080050B394F8CD
:102200005C1010208840A8602068006800F48020DE
:1022100080B12068006800F4002028B9206CC8B1A3
:102220002046216C884715E0A06C98B12046A16C2F
:1022300088470FE02068006800F4807028B92068A3
:10224000006820F0080021680860206C10B120466A
:10225000216C884794F85C1020208840304000288A
:1022600065D02068006800F0100000285FD094F866
:102270005C1020208840A86094F83500052828D1FB
:102280002068006820F01600216808602068406916
:1022900020F0800021684861206C08B9A06C28B14A
:1022A0002068006820F008002168086094F85C103D
:1022B0003F208840A860012084F8350000BF00203E
:1022C00084F8340000BF206D10B12046216D88478E
:1022D000F8BD2068006800F4802080B120680068A4
:1022E00000F4002028B9606C10B12046616C88476A
:1022F0001DE0E06BD8B12046E16B884717E020680D
:10230000006800F4807068B92068006820F0100050
:1023100021680860012084F8350000BF002084F89F
:10232000340000BFE06B10B12046E16B8847606D60
:1023300038B3606D00F00100F0B1052084F835007D
:102340002068006820F001002168086000BF009844
:10235000401C0090B84200D905E02068006800F0F9
:1023600001000028F3D100BF012084F8350000BF30
:10237000002084F8340000BFE06C10B12046E16C0E
:10238000884700BFA4E700002C0000202DE9F041A1
:102390000446002500F0C2F9074614B90120BDE843
:1023A000F081606A00B100BF022084F8350000BFF0
:1023B000002084F8340000BF2068006820F001008D
:1023C000216808600AE000F0A9F9C01B052805D9BA
:1023D00020206065032084F83500E0E7206800686D
:1023E00000F001000028EED1206805682148054072
:1023F000D4E901010843E1680843216908436169A0
:102400000843A1690843E1690843216A0843054379
:10241000606A042803D1D4E90B010843054320680E
:1024200005602068456925F00705606A0543606A14
:1024300004280DD1A06A0543E06A48B12046FEF7A2
:1024400037FC28B140206065012084F83500A6E7FC
:10245000206845612046FEF711FC064694F85C10A2
:102460003F208840B06000206065012084F835007E
:10247000002094E73F8010F02DE9F04704460D4618
:1024800016461F464FF00008D4F8589000BF94F845
:102490003400012802D10220BDE8F087012084F831
:1024A000340000BF94F83500012825D1022084F8BB
:1024B0003500002060653B46324629462046FEF73F
:1024C0004CFC94F85C103F208840C9F80800206854
:1024D000006840F0160021680860206C28B1206870
:1024E000006840F00800216808602068006840F03B
:1024F00001002168086006E000BF002084F8340075
:1025000000BF4FF002084046C6E70000F8B502469B
:102510000B460025002400200021D6E0012606FA03
:1025200001F51E6806EA0504AC4274D11E7906F076
:102530000306012E04D01E7906F00306022E13D1E5
:1025400090684F000326BE40B0434F00DE68BE4097
:1025500030439060506801268E40B0431E79C6F328
:1025600000168E40304350601E7906F00306032E9D
:1025700009D0D0684F000326BE40B0434F009E688C
:10258000BE403043D0601E7906F00306022E13D100
:10259000CF0802F1200656F827004E07F70E0F2647
:1025A000BE40B0434F07FF0E1E69BE403043CF0808
:1025B00002F1200646F8270010684F000326BE40AF
:1025C000B0431E7906F003064F00BE403043106052
:1025D0005E6806F44036002E76D000BF00260096D6
:1025E0003C4E366846F480463A4F3E603E4636687A
:1025F00006F48046009600BF00BF374E8F0856F89D
:1026000027008E07370F0F26BE40B043334EB2422D
:1026100002D1002624E057E0314EB24201D101261A
:102620001EE0304EB24201D1022619E02E4EB242D7
:1026300001D1032614E02D4EB24201D104260FE051
:102640002B4EB24201D105260AE02A4EB24201D1F8
:10265000062605E0284EB24201D1072600E00826F2
:102660008F073F0FBE4030431B4E8F0846F82700B0
:10267000224E3068A0435E6806F4801606B12043FF
:102680001E4E3060361D3068A0435E6806F40016AA
:1026900006B12043194E361D3060184E361F306883
:1026A000A0435E6806F4003606B12043134E361F81
:1026B0003060361F3068A0435E6806F4803606B18D
:1026C00020430E4E083E3060491C1029FFF426AF0F
:1026D000F8BD0000443802400838014000000240C4
:1026E0000004024000080240000C024000100240BA
:1026F0000014024000180240001C0240083C014047
:10270000024613690B400BB1012000E00020704726
:102710000AB1816101E00B048361704701480068E0
:102720007047000020000020034800680349097832
:10273000084401490860704720000020280000205C
:1027400010B50D48006840F400700B490860084659
:10275000006840F4806008600846006840F48070BB
:102760000860032000F0E0F80F2000F007F800F008
:102770005FF8002010BD0000003C02402DE9F04150
:1027800088B004460027B84600BF002001902448C6
:10279000006840F00100224908600846006800F027
:1027A0000100019000BF00BF02A903A800F092F948
:1027B000069F1FB900F0B6F9054602E000F0B2F935
:1027C00045001848B5FBF0F0A0F101084FF080403B
:1027D0001549086040F2E7311348C160C0F8048031
:1027E000002101618160816100F0BCFC064696B960
:1027F0000D4800F08DFD06466EB91C2000F042F831
:10280000102C07D2002221461C2000F04FF8074868
:10281000046000E00126304608B0BDE8F081000009
:102820004038024040420F00940F00202400002056
:1028300008B500BF002000901148006840F48040B7
:102840000F4908600846006800F48040009000BF0F
:1028500000BF00BF00200090081F006840F08050BB
:10286000091F08600846006800F08050009000BF13
:1028700000BF00220F21901E00F018F808BD0000D4
:10288000443802400146084600280DDB00BF00BF67
:1028900000F01F0301229A4043099B0003F1E0234B
:1028A000C3F8002100BF00BF00BF70472DE9F05FF3
:1028B00080460D461646002703F08CFC0746394635
:1028C0002A46334601F00700C0F1070ABAF1040FA7
:1028D00002D94FF0040A01E0C0F1070AD14600F125
:1028E000040ABAF1070F02D24FF0000A01E0A0F18A
:1028F000030AD4464FF0010A0AFA09FAAAF1010ABA
:102900000AEA020A0AFA0CFA4FF0010B0BFA0CFB66
:10291000ABF1010B0BEA030B4AEA0B0421464046DC
:1029200003F060FCBDE8F09F00BF00F00702064B1B
:1029300019684FF6FF031940044B0B4343EA022189
:10294000014B196000BF70470CED00E00000FA0574
:1029500070B504460D460CB9012070BD584800689A
:1029600000F00700A84209D255490D7008460068DA
:1029700000F00700A84201D00120EEE7207800F027
:10298000020002281DD1207800F00400042805D19F
:102990004C48006840F4E0504A490860207800F054
:1029A0000800082805D14748006840F460404549C0
:1029B00008604448006820F0F000A16808434149DD
:1029C0000860207800F00100A8B36068012807D1F2
:1029D0003C4808380068C0F34040B8B90120BCE763
:1029E0006068022802D06068032807D1354808389B
:1029F0000068C0F3406048B90120AEE731480838AC
:102A00000068C0F3400008B90120A6E72D4800681F
:102A100020F00300616808432A490860FFF77EFE42
:102A2000064609E0FFF77AFE801B41F288318842B2
:102A300002D9032091E707E02248006800F00C006B
:102A40006168B0EB810FEDD11D48006800F0070010
:102A5000A84209D91A490D700846006800F007001D
:102A6000A84201D0012078E7207800F00400042873
:102A700007D11448006820F4E050E1680843114988
:102A80000860207800F00800082808D10D48006888
:102A900020F46040216940EAC1000A49086000F062
:102AA00061F808490968C1F30311074A515CC8403D
:102AB0000649086006480068FFF760FE00204CE702
:102AC000003C024008380240C89300082C00002057
:102AD000240000200F2202600D4A126802F0030257
:102AE00042600B4A126802F0F0028260084A1268E3
:102AF00002F4E052C260064A126802F46042D20850
:102B00000261044A126802F007020A60704700007E
:102B100008380240003C024001480068704700004D
:102B20002C00002000B5FFF7F7FF04490968C1F346
:102B30008221034A515CC84000BD000008380240B1
:102B4000D893000800B5FFF7E7FF04490968C1F30F
:102B50004231034A515CC84000BD000008380240C1
:102B6000D89300082DE9F047002400250026A1464F
:102B70002548006800F00C0020B1042805D0082882
:102B80003AD105E0DFF8849039E0DFF8809036E054
:102B90001D48001F006800F03F041B48001F00682C
:102BA00000F4800078B119481749091F0968C1F37A
:102BB0008811A0FB01700146224600233846FDF72C
:102BC0005FFB05460EE011480F49091F0968C1F374
:102BD0008811A0FB01700146224600233846FDF70C
:102BE0004FFB05460848001F0068C0F30140401C29
:102BF0004600B5FBF6F902E0DFF8109000BF00BF19
:102C00004846BDE8F0870000083802400024F40080
:102C1000F8B504460CB90120F8BD207800F0010099
:102C2000002874D0F948006800F00C0004280DD08A
:102C3000F648006800F00C00082813D1F348001F84
:102C4000006800F48000B0F5800F0BD1EF48083821
:102C50000068C0F34040002859D06068002856D171
:102C60000120D9E700BF6068B0F5803F08D1E74890
:102C70000838006840F48030E449083908601EE0F4
:102C80006068B0F5A02F0DD1E0480838006840F426
:102C90008020DE49083908600846006840F480302A
:102CA00008600CE0D9480838006820F48030D74923
:102CB000083908600846006820F48020086000BFDA
:102CC000606890B1FFF72AFD054606E0FFF726FD94
:102CD000401B642801D903209EE7CC4808380068CF
:102CE000C0F340400028F1D011E0FFF717FD054682
:102CF00006E0FFF713FD401B642801D903208BE792
:102D0000C24808380068C0F340400028F1D120785C
:102D100000F0020002285FD1BC48006800F00C00FF
:102D200058B1BA48006800F00C0008281CD1B74818
:102D3000001F006800F48000B0B9B448083800688B
:102D4000C0F3400020B1E068012801D0012063E712
:102D5000AE480838006820F0F800216940EAC10058
:102D6000AA490839086037E0E06800B30120A849A3
:102D70000860FFF7D3FC054606E0FFF7CFFC401BD9
:102D8000022801D9032047E7A04808380068C0F3AB
:102D900040000028F1D09D480838006820F0F80075
:102DA000216940EAC10099490839086014E000200F
:102DB00097490860FFF7B2FC054606E0FFF7AEFC56
:102DC000401B022801D9032026E7904808380068F4
:102DD000C0F340000028F1D1207800F00800082856
:102DE0002CD16069A8B101208A490860FFF796FCE0
:102DF000054606E0FFF792FC401B022801D903209C
:102E00000AE782486C300068C0F340000028F1D027
:102E100014E000207F490860FFF780FC054606E0CB
:102E2000FFF77CFC401B022801D90320F4E6774819
:102E30006C300068C0F340000028F1D1207800F029
:102E40000400042870D1002770483830006800F072
:102E5000805090B900BF002000906C483830006866
:102E600040F080506949383108600846006800F039
:102E70008050009000BF00BF01276748006800F441
:102E80008070B0B96448006840F48070624908609E
:102E9000FFF744FC054606E0FFF740FC401B022814
:102EA00001D90320B8E65C48006800F4807000286F
:102EB000F2D000BFA068012808D1544868300068EB
:102EC00040F001005149683108601DE0A068052804
:102ED0000DD14E486830006840F004004B4968311D
:102EE00008600846006840F0010008600CE04748B0
:102EF0006830006820F001004449683108600846E5
:102F0000006820F00400086000BFA068A8B1FFF7C7
:102F100005FC054609E0FFF701FC401B41F2883142
:102F2000884202D9032077E626E0384868300068F6
:102F3000C0F340000028EED013E0FFF7EFFB05469A
:102F400008E0FFF7EBFB401B41F28831884201D9D2
:102F5000032061E62D4868300068C0F34000002877
:102F6000EFD1012F07D129483830006820F0805078
:102F700026493831086000BFA069002845D02348A1
:102F8000006800F00C0008285DD0A069022845D137
:102F900000201F490866FFF7C1FB054606E0FFF762
:102FA000BDFB401B022801D9032035E6174808382D
:102FB0000068C0F340600028F1D1D4E9070108435C
:102FC000616A40EA81110122A06AC2EB500041EA25
:102FD00000412C20005D41EA00600C49091F086097
:102FE00001200B490866FFF799FB054606E0FFF74D
:102FF00095FB401B022801D903200DE60348083841
:103000000068C0F340600028F1D049E00838024071
:1030100000004742800E47420070004000202149D6
:103020000866FFF77BFB054606E0FFF777FB401BD2
:10303000022801D90320EFE51B480068C0F3406077
:103040000028F2D12CE0A069012800D1E4E516485F
:10305000001D0668A069012820D006F48001E069FF
:1030600081421BD106F03F01206A814216D147F60A
:10307000C0703040616AB0EB811F0FD106F440315F
:103080000122A06AC2EB5000B1EB004F06D106F05E
:1030900070612C20005DB1EB006F01D00120BBE519
:1030A0000020B9E5000047420038024070477047F1
:1030B00030B502460B4600BF92F83C00012801D112
:1030C000022030BD012082F83C0000BF022082F8BF
:1030D0003D00106844681068816824F07004186826
:1030E000044310684460184D1068A8421BD0106853
:1030F000B0F1804F17D0154D1068A84213D0144D71
:103100001068A8420FD0134D1068A8420BD0124D82
:103110001068A84207D0114D1068A84203D0104D86
:103120001068A84205D121F0800158680143106859
:103130008160012082F83D0000BF002082F83C0041
:1031400000BF00BFBDE700000000014000040040D8
:1031500000080040000C0040000401400040014015
:103160000018004010B504460CB9012010BD94F8B9
:103170003D0028B9002084F83C00204600F026F8E5
:10318000022084F83D00211D206802F0F7F901209B
:1031900084F8460000BF84F83E0001213F2001551D
:1031A000402001554120015500BF00BF012084F897
:1031B000420043200155442001554520015500BFE0
:1031C000012084F83D000020D0E7000038B5044617
:1031D00049492068884218D100BF00200090474824
:1031E000006840F00200454908600846006800F0A9
:1031F0000200009000BF00BF002205211D20FFF744
:1032000055FB1D20FFF73EFB74E03D4920688842D6
:1032100018D100BF002000903848006840F004003A
:10322000364908600846006800F00400009000BFBE
:1032300000BF002205211E20FFF738FB1E20FFF7EC
:1032400021FB57E02F492068884218D100BF002099
:1032500000902A48006840F00800284908600846A5
:10326000006800F00800009000BF00BF00220521A8
:103270003220FFF71BFB3220FFF704FB3AE0224924
:10328000206888421AD100BF002000901B48001D12
:10329000006840F480301949091D0860084600683C
:1032A00000F48030009000BF00BF002205211820EC
:1032B000FFF7FCFA1820FFF7E5FA1BE01349206836
:1032C000884217D100BF002000900C48006840F0F1
:1032D00040000A4908600846006800F0400000907D
:1032E00000BF00BF002205212B20FFF7DFFA2B20B3
:1032F000FFF7C8FA38BD0000000400404038024023
:1033000000080040000C0040004001400018004050
:10331000014691F83D00012801D0012070470220AC
:1033200081F83D000868C06840F001000B68D86073
:103330001A4B086898421BD00868B0F1804F17D02C
:10334000174B0868984213D0164B086898420FD064
:10335000154B086898420BD0144B0868984207D068
:10336000134B0868984203D0124B086898420CD15E
:103370000868806800F00702062A0CD00868006818
:1033800040F001000B68186005E00868006840F034
:1033900001000B6818600020C0E700000000014039
:1033A0000004004000080040000C00400004014000
:1033B00000400140001800402DE9F04104460D4650
:1033C000002700BF94F83C00012802D10220BDE88C
:1033D000F081012084F83C0000BF022084F83D0009
:1033E0002068866826F0770626F47F462068866087
:1033F0002868502833D00CDC202850D004DC00286A
:103400004BD0102851D149E0302849D040284CD128
:1034100039E060282DD0702807D0B0F5805F03D048
:10342000B0F5005F41D10DE041E0D5E902136A68D3
:10343000206802F017F92068866846F07706206851
:10344000866034E0D5E902136A68206802F00AF960
:103450002068806840F480402168886027E0EA683E
:103460006968206802F0EEF95021206802F005F941
:103470001DE0EA686968206802F0F7F960212068B9
:1034800002F0FBF813E0EA686968206802F0DAF9F4
:103490004021206802F0F1F809E000BF00BF00BF42
:1034A0002968206802F0E9F801E0012700BF00BFA9
:1034B000012084F83D0000BF002084F83C0000BFDC
:1034C000384684E7704770B504462068C5682068B0
:1034D000066906F00200022819D105F00200022850
:1034E00015D1401F2168086101202077206880697C
:1034F00000F0030018B12046FFF7E4FF05E0204686
:1035000000F034F9204600F0E8F90020207706F0BA
:103510000400042819D105F00400042815D1C04383
:1035200021680861022020772068806900F44070DB
:1035300018B12046FFF7C6FF05E0204600F016F957
:10354000204600F0CAF90020207706F0080008287D
:1035500019D105F00800082815D1C0432168086179
:10356000042020772068C06900F0030018B12046CD
:10357000FFF7A8FF05E0204600F0F8F8204600F02D
:10358000ACF90020207706F01000102819D105F0C2
:103590001000102815D1C043216808610820207749
:1035A0002068C06900F4407018B12046FFF78AFF18
:1035B00005E0204600F0DAF8204600F08EF9002001
:1035C000207706F0010048B105F0010030B16FF03E
:1035D000010021680861204600F080F906F08000B3
:1035E000802809D105F08000802805D1C0432168DA
:1035F00008612046FFF75AFD06F04000402809D137
:1036000005F04000402805D1C043216808612046EC
:1036100000F076F906F02000202809D105F02000FE
:10362000202805D1C043216808612046FFF73FFDEF
:1036300070BD000010B586B00446142101A8FCF747
:1036400069FE4349206888423BD100BF00200090BA
:103650004048006840F008003E490860084600689D
:1036600000F00800009000BF00BF00BF00200090E5
:103670000846006840F0020008600846006800F054
:103680000200009000BF00BF4FF4405001900220A4
:1036900002900020039004900220059001A92E487A
:1036A000FEF734FF4FF4407001900220029000209A
:1036B000039004900220059001A92848FEF726FFF8
:1036C00043E02749206888421DD100BF00200090B8
:1036D0002048006840F010001E4908600846006855
:1036E00000F01000009000BF00BF60200190022099
:1036F00002900020039004900320059001A919482E
:10370000FEF704FF21E01849206888421DD100BF60
:10371000002000900F48006840F002000D4908604A
:103720000846006800F00200009000BF00BF4FF4A0
:103730004040019002200290002003900490092054
:10374000059001A90548FEF7E1FE06B010BD000096
:103750000008004030380240000C024000040240E3
:1037600000400140001002400018004070472DE961
:10377000F04104460D461646002700BF94F83C0071
:10378000012802D10220BDE8F081012084F83C002C
:1037900000BF36B1042E1BD0082E31D00C2E5ED1C6
:1037A00045E02946206801F071FF2068806940F0FB
:1037B0000800216888612068806920F00400216881
:1037C000886120688069296908432168886148E028
:1037D0002946206801F092FF2068806940F400606B
:1037E000216888612068806920F480602168886190
:1037F00020688069296940EA01202168886130E0F9
:103800002946206801F0B8FF2068C06940F0080030
:103810002168C8612068C06920F004002168C8617F
:103820002068C069296908432168C86119E02946F0
:10383000206801F0DDFF2068C06940F40060216865
:10384000C8612068C06920F480602168C861206870
:10385000C069296940EA01202168C86101E00127A7
:1038600000BF00BF00BF002084F83C0000BF384606
:1038700089E710B504460CB9012010BD94F83D004D
:1038800028B9002084F83C00204600F025F80220EA
:1038900084F83D00211D206801F070FE012084F8AD
:1038A000460000BF84F83E0001213F200155402022
:1038B00001554120015500BF00BF012084F842009E
:1038C00043200155442001554520015500BF0120EA
:1038D00084F83D000020D0E77047704710B50446DB
:1038E00006492068884201D101F06CF92068B0F1E6
:1038F000804F01D1FEF718FF10BD0000000400400A
:103900007047704710B5044600BF00BF21680C31F6
:1039100051E8001F21F4907021680C3141E8000249
:10392000002AF3D100BF00BF00BF2168143151E865
:10393000001F21F001002168143141E80002002A33
:10394000F3D100BF206B01280ED100BF00BF21685A
:103950000C3151E8001F21F0100021680C3141E8C2
:103960000002002AF3D100BF2068406900F0400047
:10397000402820D100BF00BF2168143151E8001F4A
:1039800021F040002168143141E80002002AF3D1FF
:1039900000BFE06B78B10020E16B0865E06BFEF7DB
:1039A00068FB40B1E06BFEF7CEFB202803D110206E
:1039B0006064032010BD0020E085202084F84200D0
:1039C0000020206300BFF5E7704700002DE9F84FA5
:1039D0000446206805682068C668206847694FF07B
:1039E0000009CA4605F00F09B9F1000F0AD105F028
:1039F000200038B106F0200020B1204602F051F836
:103A0000BDE8F88FB9F1000F7CD007F0010018B9BC
:103A100006F49070002875D005F0010030B106F46E
:103A2000807018B1606C40F00100606405F0040023
:103A300030B107F0010018B1606C40F00200606422
:103A400005F0020030B107F0010018B1606C40F0E1
:103A50000400606405F0080048B106F0200010B9C9
:103A600007F0010018B1606C40F008006064606C01
:103A7000002846D005F0200028B106F0200010B143
:103A8000204602F00EF820684069C0F3801A606C8E
:103A900000F0080010B9BAF1000F2DD0204601F057
:103AA000A7FF2068406900F04000402820D100BFF7
:103AB00000BF2168143151E8001F21F04000216847
:103AC000143141E80002002AF3D100BFE06B50B18D
:103AD0007748E16B0865E06BFEF721FB88B1E06B8E
:103AE000016D88470DE02046FFF76EFF09E009E011
:103AF0002046FFF769FF04E02046FFF765FF00203E
:103B000060647DE7206B012878D105F01000002863
:103B100074D006F010000028FAD000BF00200090FA
:103B200020680068009020684068009000BF00BFD7
:103B30002068406900F04000402860D1E06B0068D8
:103B400040681FFA80F8B8F1000F56D0A08D4045AC
:103B500053DDA4F82E80E06BC069B0F5807F43D0C0
:103B600000BF00BF21680C3151E8001F21F48070B4
:103B700021680C3141E80002002AF3D100BF00BFE8
:103B800000BF2168143151E8001F21F001002168B5
:103B9000143141E80002002AF3D100BF00BF00BF8A
:103BA0002168143151E8001F21F0400021681431D0
:103BB00041E80002002AF3D100BF202084F842002F
:103BC0000020206300BF00BF21680C3151E8001FB6
:103BD00021F0100021680C3141E80002002AF3D1E5
:103BE00000BFE06BFEF745FA02206063A08DE28D16
:103BF000801A81B22046FFF784FE01E742E0A08DE3
:103C0000E18D401A1FFA80F8E08DD0B3B8F1000FB3
:103C100037D000BF00BF21680C3151E8001F21F4EC
:103C2000907021680C3141E80002002AF3D100BFF6
:103C300000BF00BF2168143151E8001F21F00100CE
:103C40002168143141E80002002AF3D100BF20208E
:103C500084F842000020206300BF00BF21680C31BF
:103C600051E8001F21F0100021680C3141E80002EA
:103C7000002AF3D100BF0220606341462046FFF7CF
:103C800040FEBDE605F0800030B106F0800018B1BE
:103C9000204602F0FFF8B3E605F0400030B106F030
:103CA000400018B1204601F0D9FEA9E600BFA7E602
:103CB000B558000810B504460CB9012010BDA06924
:103CC00000B100E000BF94F8410028B9002084F85A
:103CD0004000204600F02AF8242084F841002068A3
:103CE000C06820F400502168C860204601F058FFE9
:103CF0002068006920F490402168086120684069CC
:103D000020F02A00216848612068C06840F4005013
:103D10002168C86000206064202084F8410084F895
:103D200042000020606300BFC8E7000010B586B005
:103D30000446142101A8FCF7EDFAFE4920688842E8
:103D400074D100BF00200090FB48006840F40020C0
:103D5000F94908600846006800F40020009000BFA0
:103D600000BF00BF00200090F3481038006840F00A
:103D70000100F149103908600846006800F00100B0
:103D8000009000BF00BF032001900220029000209D
:103D90000390032004900820059001A9E748FEF74E
:103DA000B5FBE748E7490860400548600021E54861
:103DB0008160C1604FF480610161002141618161D6
:103DC000C16101624162FEF7E1FA08B1FDF754F901
:103DD00000BFDC48E063846300BFD9483030DA4973
:103DE00008604FF0006048604021D74881600021A2
:103DF000C1604FF480610161002141618161C16155
:103E000001624162FEF7C2FA08B1FDF735F900BF61
:103E1000CD48A063846300BF002205213420FEF753
:103E200045FD3420FEF72EFDAAE2FFE7C7492068D2
:103E300088427DD100BF00200090BF48006840F458
:103E40008010BD4908600846006800F480100090AA
:103E500000BF00BF00BF00200090B74810380068C6
:103E600040F00400B449103908600846006800F0CA
:103E70000400009000BF00BF00BF00200090084673
:103E8000006840F0080008600846006800F008007C
:103E9000009000BF00BF8814019002200290002013
:103EA0000390032004900820059001A9A848FEF77C
:103EB0002DFB04200190022002900020039003209B
:103EC00004900820059001A9A248FEF71FFB9C481A
:103ED0003038A1490860C005486000219E488160D3
:103EE000C1604FF480610161002141618161C16164
:103EF00001624162FEF74AFA08B1FDF7BDF800BF62
:103F00009548E063846300BF8D487830934908602A
:103F10004FF0006048604021904881600021C160FE
:103F20004FF480610161002141618161C16100E064
:103F300014E001624162FEF729FA08B1FDF79CF82E
:103F400000BF8648A063846300BF0022052135209E
:103F5000FEF7ACFC3520FEF795FC11E280492068A5
:103F6000884278D100BF002000907348001D00688F
:103F700040F010007049091D08600846006800F014
:103F80001000009000BF00BF00BF002000906A48F2
:103F90001038006840F00100674910390860084691
:103FA000006800F00100009000BF00BF4FF4C06047
:103FB000019002200290002003900320049007202B
:103FC000059001A95D48FEF7A1FA664866490860B8
:103FD0004FF000604860002163488160C1604FF489
:103FE00080610161002141618161C16101624162C1
:103FF000FEF7CCF908B1FDF73FF800BF5A48E0637F
:10400000846300BF57487830584908604FF000601B
:1040100048604021554881600021C1604FF48061B3
:104020000161002141618161C16101624162FEF76C
:10403000ADF908B1FDF720F800BF4C48A0638463D8
:1040400000BF002205212520FEF730FC2520FEF7C9
:1040500019FC95E1FFE746492068884268D100BF16
:10406000002000903448006840F400303249086075
:104070000846006800F40030009000BF00BF00BF99
:10408000002000902C481038006840F001002A49B8
:10409000103908600846006800F00100009000BF79
:1040A00000BF0C200190022002900020039003200A
:1040B00004900720059001A92048FEF727FA204820
:1040C00048302C4908604FF00060486000212948C2
:1040D0008160C1604FF480610161002141618161B3
:1040E000C16101624162FEF751F908B1FCF7C4FFFA
:1040F00000BF2048E063846300BF114860301E4960
:1041000008604FF00060486040211B48816000213A
:10411000C1604FF480610161002141618161C16131
:1041200001624162FEF732F908B1FCF7A5FF25E014
:1041300032E00000004C00404038024000000240E5
:1041400040600240140B0020740B0020005000401F
:1041500000080240000C0240D40B0020340C002068
:104160000010014040640240940C0020F40C002038
:1041700000440040540D0020B40D002000BF8148D1
:10418000A063846300BF002205212620FEF78EFB7A
:104190002620FEF777FBF3E07B492068884276D142
:1041A00000BF002000907948006840F480207749E3
:1041B00008600846006800F48020009000BF00BF3F
:1041C00000BF0020009071481038006840F00200E5
:1041D0006E49103908600846006800F0020000903F
:1041E00000BF00BF4FF44060019002200290002009
:1041F0000390032004900720059001A96448FEF76E
:1042000085F96448644908604FF000604860002107
:1042100061488160C1604FF48061016100214161AA
:104220008161C16101624162FEF7B0F808B1FCF73B
:1042300023FF00BF5848E063846300BF5548303017
:10424000564908604FF00060486040215348816043
:104250000021C1604FF480610161002141618161F1
:10426000C16101624162FEF791F808B1FCF704FFF9
:1042700000BF4A48A063846300BF002205212720B5
:10428000FEF714FB2720FEF7FDFA79E0FFE744492B
:104290002068884274D100BF002000903B48001D78
:1042A000006840F020003949091D08600846006890
:1042B00000F02000009000BF00BF00BF0020009071
:1042C00032481038006840F0040030491039086066
:1042D0000846006800F00400009000BF00BFC02046
:1042E00001900220029000200390032004900820F7
:1042F000059001A92B48FEF709F92B482B490860C6
:104300004FF0206048604021284881600021C16052
:104310004FF480610161002141618161C1610162ED
:104320004162FEF733F808B1FCF7A6FE00BF1F4854
:10433000A063846300BF1C4878381D49086080056D
:10434000486000211A488160C1604FF480610161BA
:10435000002141618161C16101624162FEF716F88D
:1043600008B1FCF789FE00BF1148E063846300BF19
:10437000002205214720FEF799FA4720FEF782FA2E
:1043800006B010BDB40D0020004800404038024087
:104390000004024028600240140E0020740E002029
:1043A0000014014000080240A0640240D40E002026
:1043B000340F002070B504460D46164694F84200AE
:1043C00020280BD105B10EB9012070BD002020635B
:1043D00032462946204601F0F9FCF6E70220F4E7D0
:1043E00070477047704700BFFEE7000010B50E48E9
:1043F0000E4908600620486000210C488160C160B9
:104400004FF4003101610901416100210176012170
:10441000417600218176C17601774177FDF719FC5D
:1044200008B1FCF729FE10BD00640040AC07002075
:1044300010B50E480E4908600620486000210C485F
:104440008160C1604FF400310161090141610021C7
:1044500001760121417600218176C176017741778D
:10446000FDF7F7FB08B1FCF707FE10BD0068004040
:10447000D407002008B500BF002000903E48006827
:1044800040F400103C4908600846006800F4001041
:10449000009000BF00BF00BF0020009008460068E9
:1044A00040F4800008600846006800F48000009036
:1044B00000BF00BF002205210B20FEF7F7F90B20FB
:1044C000FEF7E0F9002205210C20FEF7EFF90C20A1
:1044D000FEF7D8F9002205210D20FEF7E7F90D209F
:1044E000FEF7D0F9002205210E20FEF7DFF90E209D
:1044F000FEF7C8F9002205210F20FEF7D7F90F209B
:10450000FEF7C0F9002205211020FEF7CFF9102098
:10451000FEF7B8F9002205211120FEF7C7F9112096
:10452000FEF7B0F9002205212F20FEF7BFF92F205A
:10453000FEF7A8F9002205213920FEF7B7F9392046
:10454000FEF7A0F9002205213A20FEF7AFF93A2044
:10455000FEF798F9002205214520FEF7A7F945202E
:10456000FEF790F9002205214620FEF79FF946202C
:10457000FEF788F908BD00003038024000B5B1B040
:104580001C222C492AA8FBF7ACFE00212AA802F025
:10459000FEF92949086003F0A3FB1C2225491C31C0
:1045A00023A8FBF79EFE002123A802F0F0F923497F
:1045B00008601C221F4938311CA8FBF792FE00211D
:1045C0001CA802F0E4F91E4908601C221949543164
:1045D00015A8FBF786FE002115A802F0D8F91949A5
:1045E00008601C22134970310EA8FBF77AFE0021E7
:1045F0000EA802F0CCF9144908601C220D498C3138
:1046000007A8FBF76EFE002107A802F0C0F90F49CA
:1046100008601C220749A8316846FBF762FE0021AA
:10462000684602F0B4F90A49086003F083FB31B030
:1046300000BD0000FC9200080000002004000020E3
:10464000080000200C0000201000002014000020B2
:104650001800002000B587B0142102A8FBF75AFE0D
:1046600000BF002001904448006840F0100042491B
:1046700008600846006800F01000019000BF00BF0D
:1046800000BF002001900846006840F080000860EC
:104690000846006800F08000019000BF00BF00BF26
:1046A000002001900846006840F0010008600846BC
:1046B000006800F00100019000BF00BF00BF0020B3
:1046C00001900846006840F0020008600846006853
:1046D00000F00200019000BF00BF00BF0020019069
:1046E0000846006840F0080008600846006800F0CE
:1046F0000800019000BF00BF00BF002001900846E5
:10470000006840F0040008600846006800F00400FB
:10471000019000BF00BF002289141848FDF7F8FF80
:1047200000224FF400611648FDF7F2FF4FF480506D
:1047300002900120039000200490059002A90F48E8
:10474000FDF7E4FE4FF4006002900120039000208A
:104750000490059002A90A48FDF7D8FE4FF44040A6
:104760000290002003900120049002A90448FDF764
:10477000CDFE07B000BD00003038024000100240FE
:10478000000C024000B58BB0002007900890099003
:104790000A901C216846FBF7BDFD1F481F490860B1
:1047A0005320486000211D4881604FF6FF71C160B1
:1047B000002101618161FEF7D5FC08B1FCF75CFCCA
:1047C0004FF48050079007A91448FEF7F5FD08B193
:1047D000FCF752FC1148FFF74CF808B1FCF74CFC11
:1047E0006020009000200190029004900022694611
:1047F0000A48FEF7BCFF08B1FCF73EFC04226946FC
:104800000648FEF7B4FF08B1FCF736FC0348FEF794
:1048100011FF0BB000BD0000001800401C09002073
:1048200000B587B000200390049005900690019099
:10483000029014481449086053204860002112482F
:10484000816040F2E731C160002101618161FEF7C2
:1048500089FC08B1FCF710FC4FF48050039003A9C9
:104860000948FEF7A9FD08B1FCF706FC00200190FD
:10487000029001A90448FEF71BFC08B1FCF7FCFB01
:1048800007B000BD00040040FC07002000B58DB05B
:10489000002009900A900B900C90079008901C2122
:1048A0006846FBF737FD2C482C490860A720486074
:1048B00000212A4881604FF6FF71C160002101612B
:1048C0008161FEF74FFC08B1FCF7D6FB4FF4805036
:1048D000099009A92148FEF76FFD08B1FCF7CCFB50
:1048E0001E48FEF7C6FF08B1FCF7C6FB0020079084
:1048F000089007A91948FEF7DBFB08B1FCF7BCFBE1
:1049000060200090002001900290049000226946EF
:104910001248FEF72CFF08B1FCF7AEFB04226946F3
:104920000E48FEF724FF08B1FCF7A6FB08226946F3
:104930000A48FEF71CFF08B1FCF79EFB0C226946F3
:104940000648FEF714FF08B1FCF796FB0348FEF794
:1049500071FE0DB000BD00000008004044080020BA
:1049600000B587B000200390049005900690019058
:10497000029014481449086042F2CF0048600021B8
:1049800011488160491EC160002101618161FEF70B
:10499000E9FB08B1FCF770FB4FF48050039003A9CA
:1049A0000948FEF709FD08B1FCF766FB00200190FD
:1049B000029001A90448FEF77BFB08B1FCF75CFB01
:1049C00007B000BD000C00408C08002000B58BB083
:1049D00000200790089009900A901C216846FBF778
:1049E00099FC1F481F490860A720486000211D4806
:1049F00081604FF6FF71C160002101618161FEF7A6
:104A0000B1FB08B1FCF738FB4FF48050079007A9C1
:104A10001448FEF7D1FC08B1FCF72EFB1148FEF755
:104A200028FF08B1FCF728FB6020009000200190CF
:104A300002900490002269460A48FEF798FE08B1E9
:104A4000FCF71AFB042269460648FEF790FE08B1FF
:104A5000FCF712FB0348FEF7EDFD0BB000BD0000B4
:104A600000400140D408002010B50B480B490860F5
:104A70004FF416404860002108488160C160016120
:104A80000C21416100218161C161FFF713F908B177
:104A9000FCF7F2FA10BD0000004C00406409002051
:104AA00010B50B480B4908604FF4E1304860002115
:104AB00008488160C16001610C2141610021816170
:104AC000C161FFF7F7F808B1FCF7D6FA10BD000096
:104AD00000500040AC09002010B50C480C4908609B
:104AE0000C4848604FF48051094881600021C16042
:104AF0004FF4806101610C21416100218161C1613C
:104B0000FFF7D8F808B1FCF7B7FA10BD0010014064
:104B1000F4090020A086010010B50B480B4908607D
:104B20004FF4E1304860002108488160C1600161B4
:104B30000C21416100218161C161FFF7BBF808B11F
:104B4000FCF79AFA10BD0000004400403C0A002027
:104B500010B50B480B4908604FF4E1304860002164
:104B600008488160C16001610C21416100218161BF
:104B7000C161FFF79FF808B1FCF77EFA10BD000095
:104B800000480040840A002010B50B480B4908601B
:104B90004FF4E1304860002108488160C160016144
:104BA0000C21416100218161C161FFF783F808B1E7
:104BB000FCF762FA10BD000000140140CC0A00208E
:104BC00000BFFEE710B50F4801880088401C0D4A61
:104BD0001080142915DD0020114608804FF4004193
:104BE0000948FDF78DFD10B90120084908704FF400
:104BF00080410548FDF784FD10B901200449087083
:104C000000BF10BDC8000020000C0240C6000020FC
:104C1000C700002008B501F04FFE009000BF0E480D
:104C2000007810B902F0D8FF11E00B480078012895
:104C30000DD10A480078012807D0094800780128DA
:104C400003D001200749087001E002F085FF0A2126
:104C5000684601F01EFEE2E7FE000020C6000020CC
:104C6000C7000020FD00002000BFFEE710B52DEDBD
:104C7000028B0446B0EE408AF0EE608A94F86D0034
:104C800000F0800070B1204601F0E0FC7820005D6B
:104C900040B19FED510A84ED0D0A9FED4F0ABDEC26
:104CA000028B10BD84ED058AC4ED008A94ED000AE4
:104CB000D4ED050A30EE600A84ED070A94ED070A88
:104CC000B5EEC00AF1EE10FA02DD94ED070A03E03A
:104CD00094ED070AB1EE400AD4ED120AB4EEE00AF0
:104CE000F1EE10FA65DD94ED020AD4ED070A20EE2C
:104CF000200A84ED090A94ED030AD4ED070A20EE98
:104D0000200A84ED0C0A94ED070AD4ED080A30EE6F
:104D1000600AD4ED040A20EE200A84ED0B0A94F810
:104D20006D0000F0040010B1204601F04CFD94F835
:104D30006D0000F0200010B1204601F077FB94F8E0
:104D40006D0000F0010010B1204601F0F3FB94F873
:104D50006D0000F0020010B1204601F0DEFB94F877
:104D60006D0000F0400010B1204601F0C3FB94ED4F
:104D70000A0AD4ED0C0A30EE200A84ED0A0A94EDFA
:104D8000090AD4ED0A0A30EE200AD4ED0B0A30EEFF
:104D9000200A84ED0D0A94F86D0000F0100010B1A7
:104DA000204601F021FC204601F031FC204601F0B4
:104DB000EBFC94ED050A84ED060A94ED0D0A84EDF2
:104DC0000E0A94ED0B0A84ED0F0A94ED070A84EDA8
:104DD000080A94ED0D0A62E7000000002DE9F04199
:104DE0002DED088B04460D461646B0EE408AF0EED7
:104DF000608AB0EE419AF0EE619AB0EE42AAF0EE0F
:104E000062AAB0EE43BAF0EE63BA1F460F4844F808
:104E1000800F0F48606054F880C93B46F0EE6B3A53
:104E2000B0EE4B3AF0EE6A2AB0EE4A2AF0EE691A7A
:104E3000B0EE491AF0EE680AB0EE480A324629464A
:104E40002046E047BDEC088BBDE8F081ED66000828
:104E50006167000810B51A480078B8B99FED190AC3
:104E6000194880ED010A90ED011AF0EE410A90ED2B
:104E7000001AB0EE410A1548FFF7F8FEBDEEC00A71
:104E800010EE100A00B21049088318E00C480078B0
:104E9000012814D102F024FF0D4800880C49088233
:104EA0000020886002F046FF9FED0A0A064880ED68
:104EB000010A00F0F5F80648C0680349086110BD12
:104EC000C700002000A08CC52850002048500020BA
:104ED000D04E00200000000010B52DED068B00F034
:104EE0009DF84048807E052875D2DFE800F0030772
:104EF0000A32710000203B4908836DE0FFF7AAFFEA
:104F00006AE00120384908709FED380A354880ED85
:104F1000010A4469002C01DB214600E06142084699
:104F2000FBF78BFB41EC180B9FED310B53EC102B77
:104F3000FBF7C0FB0AD800202B49087004202E493B
:104F400008709FED2E0A274880ED010A00F0A8F8AE
:104F500042E00120244908709FED240A214880ED99
:104F6000010A25490978491CC1EB413101EBC10116
:104F70008800FBF762FB9FED220B53EC102BFBF735
:104F80007BFA41EC180B17484469002C01DB2146E1
:104F900000E061420846FBF750FB41EC190B53EC73
:104FA000182BFBF787FB0FD8134801780078401CBB
:104FB000114A1070042907DB00200B4908709FED8F
:104FC0000F0A084880ED010A00F06AF804E002E0E8
:104FD00000F080F800E000BF00BF00F015F8BDEC65
:104FE000068B10BD28500020E10000200080BB454A
:104FF000676666E63B1C7241E0000020000000008E
:105000009A999999991930400248008B0249C880B1
:105010007047000028500020BC0000200748C068EE
:10502000074948610548B0F9040000EE100AB8EEDF
:10503000C00A084680ED000A70470000D04E0020EC
:105040002850002001498876704700002850002031
:1050500010B500F0A3F82223DFED0B3A9FED0A3ADA
:10506000DFED0A2A9FED0A2ADFED0A1A9FED0A1AE0
:10507000F0EE080A9FED040A002242F21071074880
:10508000FFF7ACFE10BD00000000000000007A44F5
:105090000000FA436666E63F0AD7A33E4850002068
:1050A00010B50A4890ED011AF0EE410A90ED001A91
:1050B000B0EE410A0648FFF7D9FDBDEEC00A10EE7A
:1050C000100A00B20149088310BD000028500020DA
:1050D0004850002010B52DED028B002027490870A4
:1050E0002748B0F92A00A0F2611018B1A0F23D5093
:1050F000E8BB21E09FED230A234880ED010A4469C3
:10510000002C01DB214600E061420846FBF795FADE
:1051100041EC180B9FED1D0B53EC102BFBF7B2FA73
:1051200007D29FED1C0A184880ED010A03201A4996
:105130000870FFF7B5FF1CE09FED120A124880EDE2
:10514000010A01464869002801DB014600E04142AE
:1051500042F21072914207DA9FED0E0A0A4880ED82
:10516000010A00200C490870FFF79AFF01E0FFE7F1
:1051700000BF00BFBDEC028B10BD0000E1000020AD
:10518000744E00200080BBC5285000209A9999D900
:10519000592A6B4100000000E00000200020034974
:1051A000087048700248486070470000E400002022
:1051B0003576000808B501F07FFB0090FFF748FF47
:1051C0000DE0074802F042FAFFF786FE022105488B
:1051D000006801F07BFB0221684601F05AFBF0E712
:1051E000E40000200400002010B52948007820B118
:1051F00001280CD0022844D126E09FED260A24483D
:1052000080ED030A9FED230A80ED040A39E022486D
:1052100090ED000AB8EEC00A1D4880ED030A1F4851
:1052200090ED000AB8EEC00A194880ED040A1C4847
:10523000007840B99FED170A154880ED030A9FEDED
:10524000150A80ED040A1CE0134890ED000AB8EE40
:10525000C00A0F4880ED030A104890ED000AB8EE2E
:10526000C00A0B4880ED040A0D48007840B99FED54
:10527000090A074880ED030A9FED060A80ED040A3B
:1052800000BF00BF00F056F800F00CF810BD0000A1
:105290001050002000000000D4000020D8000020A2
:1052A000E10000200348C08A034948800148808A01
:1052B0000880704710500020BC00002010B500F09E
:1052C00067F88123DFED183A9FED173ADFED162AD4
:1052D0009FED152ADFED141A9FED141AF2EE080A5D
:1052E000B3EE040A40F2DC5242F228311048FFF7D4
:1052F00075FD8123DFED0C3A9FED0B3ADFED0A2AB5
:105300009FED092ADFED081A9FED081AF2EE080A50
:10531000B3EE040A40F2DC5242F2283104488830ED
:10532000FFF75CFD10BD0000000000000AD7A33BA2
:10533000004F002010B5144890ED031AF0EE410A1A
:1053400090ED011AB0EE410A1048FFF78FFCBDEE58
:10535000C00A10EE100A00B20B498882084690ED90
:10536000041AF0EE410A90ED021AB0EE410A074825
:105370008830FFF77BFCBDEEC00A10EE100A01B2C8
:105380000148C18210BD000010500020004F0020D5
:1053900000200349087048700248486070470000C8
:1053A000CC000020B579000808B501F085FA00901E
:1053B000FFF784FF0FE0084802F008FBFFF714FF37
:1053C00000F00EF801210548006801F07FFA022183
:1053D000684601F05EFAEEE7CC00002004000020F1
:1053E0000A48B0F9040000EE100AB8EEC00A0848F6
:1053F00080ED010A0548B0F91C0000EE100AB8EE75
:10540000C00A034880ED020A70470000A04E002049
:105410001050002000BF012001F02FFAFBE7000030
:1054200010B500BF502080F31188BFF34F8FBFF33A
:105430006F8F00BF03F0BEFC18B14FF080500449DD
:10544000086000BF002080F3118800BF10BD00007D
:1054500004ED00E000B593B0302107A8FAF75AFF39
:10546000142102A8FAF756FF00BF0020019024483B
:10547000006840F08050224908600846006800F04B
:105480008050019000BF00BF00BF002001901D4868
:10549000006840F480401B4908600846006800F43A
:1054A0008040019000BF00BF0120079000040890D9
:1054B00002200D9041050E9108210F91A821109115
:1054C000022111910421129107A8FDF7A1FB08B157
:1054D000FBF7D2FD0F2002900220039000200490E1
:1054E0004FF4A05005904FF480500690052102A87B
:1054F000FDF72EFA08B1FBF7BFFD13B000BD0000A9
:1055000040380240007000400348006840F47000DA
:10551000014908607047000088ED00E010B50248BE
:10552000FDF7D1FF10BD0000D408002010B50248DF
:10553000FDF7C9FF10BD0000940F002010B5024810
:10554000FDF7C1FF10BD0000FC07002010B50248A8
:10555000FDF7B9FF10BD00004408002010B5024857
:10556000FDF7B1FF10BD00008C08002010B5024807
:10557000FDF7A9FF10BD00001C09002010B502684E
:105580002D4B98420ED0B0F1804F0BD02B4B984250
:1055900008D02B4B984205D02A4B984202D02A4B78
:1055A000984203D122F070024B681A43224B984272
:1055B00020D0B0F1804F1DD0204B98421AD0204B04
:1055C000984217D01F4B984214D01F4B984211D0CD
:1055D0001E4B98420ED01E4B98420BD01D4B98424A
:1055E00008D01D4B984205D01C4B984202D01C4B52
:1055F000984203D122F44072CB681A4322F0800310
:105600004C6943EA040202608B68C3620B688362E0
:10561000094B984202D00C4B984201D10B690363AD
:1056200001234361036903F001031BB1036923F004
:105630000103036110BD00000000014000040040B0
:1056400000080040000C0040000401400040014000
:10565000004401400048014000180040001C004088
:105660000020004030B50C46816821F47F4142EAB9
:10567000032525432943816030BD0A46816821F016
:10568000700142F0070319438160704730B5026A28
:10569000056A25F0010505624368846924F07004F9
:1056A00024F003040D682C4322F002028D682A4383
:1056B000104DA84200D103E00F4DA84206D100BF13
:1056C00022F00802CD682A4322F00402094DA842C4
:1056D00002D0094DA84207D123F4807323F400734C
:1056E0004D692B438D692B43436084614D6845634D
:1056F000026230BD000001400004014030B5026A82
:10570000056A25F0100505624368846924F4E044C5
:1057100024F440740D6844EA052422F020028D68C8
:1057200042EA0512124DA84200D103E0114DA842F1
:1057300007D100BF22F08002CD6842EA051222F0B4
:1057400040020B4DA84202D00A4DA84209D123F4D1
:10575000806323F400634D6943EA85038D6943EA5E
:105760008503436084614D688563026230BD00003B
:10577000000001400004014030B5026A056A25F4CA
:10578000807505624368C46924F0700424F0030442
:105790000D682C4322F400728D6842EA0522124DF6
:1057A000A84200D103E0114DA84207D100BF22F466
:1057B0000062CD6842EA052222F480620A4DA842C6
:1057C00002D00A4DA84209D123F4805323F4005398
:1057D0004D6943EA05138D6943EA05134360C461CB
:1057E0004D68C563026230BD000001400004014005
:1057F00030B5036A056A25F4805505624468C269BC
:1058000022F4E04222F440720D6842EA052223F4B9
:1058100000538D6843EA0533084DA84202D0084D75
:10582000A84204D124F480444D6944EA85144460BC
:10583000C2614D680564036230BD00000000014094
:105840000004014030B50B461446026A056A25F093
:1058500001050562816921F0F00141EA041122F09D
:105860000A021A438161026230BD30B50B4614460C
:10587000026A056A25F010050562816921F470410C
:1058800041EA043122F0A00242EA0312816102627D
:1058900030BD000010B50248FEF798F810BD0000BA
:1058A0006409002010B50248FEF790F810BD000012
:1058B000AC09002070B50546AC6B0020E085E084A3
:1058C0002046FEF781F870BD70B506460025B46B22
:1058D00020684069C0F3C01594F84100212805D123
:1058E00025B10020E084204600F0C8F82068406917
:1058F000C0F3801594F84200222805D125B100207C
:10590000E085204600F074F8606C40F010006064A0
:105910002046FEF759F870BD70B50546AC6B286897
:10592000006800F48070002842D1E08500BF00BF0D
:1059300021680C3151E8001F21F4807021680C317E
:1059400041E80002002AF3D100BF00BF00BF216878
:10595000143151E8001F21F001002168143141E8A1
:105960000002002AF3D100BF00BF00BF216814313C
:1059700051E8001F21F040002168143141E8000285
:10598000002AF3D100BF202084F84200206B0128B8
:105990000ED100BF00BF21680C3151E8001F21F07B
:1059A000100021680C3141E80002002AF3D100BF49
:1059B00000206063206B012804D1A18D2046FDF7F3
:1059C000A0FF02E02046FEF70BFD70BD70B5054656
:1059D000AC6B01206063206B012805D1A08D4108CC
:1059E0002046FDF78EFF02E02046FEF7FAFC70BD70
:1059F00000BF00BF02680C3252E8002F22F4907101
:105A000002680C3242E80013002BF3D100BF00BF44
:105A100000BF0268143252E8002F22F00101026830
:105A2000143242E80013002BF3D100BF016B0129AF
:105A30000ED100BF00BF02680C3252E8002F22F0E6
:105A4000100102680C3242E80013002BF3D100BFB2
:105A5000202180F8421000210163704710B50446F0
:105A60002068C06820F040002168C860202084F8C9
:105A700041002046FEF7B6FC002010BD00BF00BF6D
:105A800002680C3252E8002F22F0C00102680C328A
:105A900042E80013002BF3D100BF202180F8411011
:105AA0007047F8B5044694F84200222875D1A068E2
:105AB000B0F5805F0CD1206950B90025A66A206836
:105AC0004068C0F308003080A06A801CA06215E026
:105AD000A56A0026A068B0F5805F03D0A06828B949
