:020000040800F2
:10000000F05900205D020008A1520008294A0008AA
:100010001D520008F9080008E16A0008000000000D
:100020000000000000000000000000009D0100082A
:10003000F111000800000000F9010008815D0008CE
:1000400077020008770200087702000877020008AC
:10005000770200087702000877020008770200089C
:10006000770200087702000877020008F90C000800
:10007000090D0008190D0008290D0008390D0008A8
:10008000490D0008590D000877020008E109000831
:10009000B1090008C1090008D10900087702000869
:1000A0007D5E0008770200087702000877020008EA
:1000B0008D5E00089D5E0008AD5E000877020008B6
:1000C000770200087702000877020008770200082C
:1000D00077020008E5680008F96800080969000867
:1000E000770200087702000877020008CD5E00085A
:1000F000770200087702000877020008690D0008FF
:100100007702000877020008BD5E00087702000849
:10011000F561000805620008770200087702000810
:1001200077020008790D0008890D000877020008A1
:10013000770200087702000877020008D50A000855
:10014000A50A0008B50A0008C50A000877020008D9
:1001500077020008990D0008A90D00081D69000824
:10016000770200087702000877020008770200088B
:1001700077020008770200087702000800000000FC
:100180007702000877020008DFF80CD000F0A2FB2D
:1001900000480047B17C0008F05900202C4B19683A
:1001A0000868B0E8F04F80F30988BFF36F8F4FF015
:1001B000000080F3118870470000000008480068C4
:1001C000006880F308884FF0000080F3148862B65E
:1001D00061B6BFF34F8FBFF36F8F00DF00BF00BF6B
:1001E00008ED00E0DFF80C00016841F470010160E7
:1001F000704700BF88ED00E0EFF30980BFF36F8F19
:10020000134B1A681EF0100F08BF20ED108A20E96A
:10021000F04F106009B44FF0500080F31188BFF325
:100220004F8FBFF36F8F09F05FFA4FF0000080F33C
:10023000118809BC19680868B0E8F04F1EF0100F6B
:1002400008BFB0EC108A80F30988BFF36F8F704746
:1002500034000020EFF30580704700000648804717
:1002600006480047FEE7FEE7FEE7FEE7FEE7FEE79B
:10027000FEE7FEE7FEE7FEE7695E00088901000889
:100280002DE9F05F0546002092469B4688460646CB
:10029000814640241BE0284641464746224600F05E
:1002A0004AFA53465A46C01A914110D3114618468D
:1002B000224600F031FA2D1A67EB01084F4622461C
:1002C0000120002100F028FA17EB00094E41201E02
:1002D000A4F10104DFDC484631462A464346BDE826
:1002E000F09F40EA01039B0703D009E008C9121FF1
:1002F00008C0042AFAD203E011F8013B00F8013BE0
:10030000521EF9D27047D2B201E000F8012B491E0B
:10031000FBD270470022F6E710B513460A460446A2
:100320001946FFF7F0FF204610BD2DE9FE4F80462D
:1003300081EA0300C00F0C46009021F0004123F039
:100340000045B8EB0200A94105D24046214690463F
:100350001C460B46024623F00040104347D0270DB1
:10036000C7F30A00C3F30A510290401A01904028D3
:100370006BDAC3F3130040F4801B0098924620B15F
:100380000023D2EB030A63EB0B0B01985946C0F133
:100390004002504600F0C0F906460D465046594608
:1003A000019A00F0D8F910EB08006141002487EAB7
:1003B000115284EAE7731A4340D0009A62B3019A5B
:1003C000012A4FEA075215DC001B61EB02014FF0D6
:1003D000004202EA0752CDE90042001C41F58011BB
:1003E00032462B4600F00FFA03B0BDE8F08F4046CE
:1003F0002146F9E7001B61EB0201001C41F5801367
:1004000000185B412018A2F5001747EB030140EAF2
:10041000D570B6196D4111E06D084FEA360645EA10
:10042000C0754FEA0752001B61EB0201001C41F549
:10043000801149084FEA30000019514132462B46DD
:1004400003B0BDE8F04F00F0CFB9009801224000A2
:100450000023D0EB020263EBE073009821464FEAE1
:10046000E074B8EB000061EB0401E9E783F00043BE
:100470005BE781F0004158E72DE9FE4F81EA030474
:1004800004F0004421F0004100944FF0000B23F0F1
:10049000004350EA01045ED052EA03045BD0C3F388
:1004A0000A54C1F30A552C44A4F2F3340194A0FB7E
:1004B0000254C1F3130141F48011C3F3130343F455
:1004C000801301FB024400FB034E840A970A44EAAE
:1004D000815447EA8357A4FB076802958D0A05FB00
:1004E00007854FEA932C04FB0C542705029D4FEA25
:1004F000065847EA1637B5EB08056EEB070C870E72
:10050000920E47EA811742EA8312A7FB0201B6EB7B
:100510000B0164EB00042B0D43EA0C335E1844EB33
:100520001C50DA465146E7FB0201C5F313044FEABB
:100530000B3343EA14534FEA0432019C43EA0603A7
:10054000A4F10C040294009CCDE900B400F05BF926
:1005500003B0BDE8F08F00200146F9E72DE9F04D2A
:1005600081EA030404F0004B21F0004514464FF0EB
:10057000000A23F0004150EA050220D054EA0102AB
:100580001DD0C5F30A570246C5F31303C1F3130088
:10059000C1F30A5640F4801543F48013A7EB060814
:1005A000101BD64608F2FD3873EB050002D308F1A4
:1005B000010801E092185B41B8F1000F03DA002056
:1005C0000146BDE8F08D00204FF4801106468446B8
:1005D0000EE0171B73EB050705D3121B63EB050336
:1005E00006434CEA010C49084FEA300092185B417F
:1005F00050EA0107EDD152EA030012D082EA04006A
:1006000083EA0501084305D0101BAB4106D2012245
:10061000002306E000224FF0004302E06FF00102E9
:1006200053101AEB06004CEB085110EB0A0041EB9B
:100630000B01BDE8F04D00F0D7B80EB5C10F80EA50
:10064000E0700844CA07002140F233438DE80E00F1
:100650000A460B4600F0D7F803B000BD00F0004298
:1006600030F000400AD0C10D01F56071C0F31600F2
:1006700042EA0151C2084007114370470020014679
:100680007047000030B5041E71F1000404DB4FF028
:100690000044404264EB0101141E73F1000405DBC9
:1006A0001C464FF00043524263EB0403994208BFDB
:1006B000904230BD01F0004330B421F0004150EAD7
:1006C000010206D00A0DA2F56072C1F31301002ADF
:1006D00002DC30BC00207047440F44EAC104C10072
:1006E000E01830BC00EBC25000F047B830B50B4604
:1006F000014600202022012409E021FA02F59D4252
:1007000005D303FA02F5491B04FA02F52844151E25
:10071000A2F10102F1DC30BD202A04DB203A00FA0C
:1007200002F1002070479140C2F1200320FA03F348
:10073000194390407047202A04DB203A21FA02F046
:100740000021704721FA02F3D040C2F1200291400B
:10075000084319467047202A06DBCB17203A41FA96
:1007600002F043EAE07306E041FA02F3D040C2F13E
:10077000200291400843194670470029A8BF7047DE
:10078000401C490008BF20F00100704710B4B0FAC7
:1007900080FC00FA0CF050EA010404BF10BC704762
:1007A00049B1CCF1200421FA04F411FA0CF118BF7C
:1007B000012121430843A3EB0C01CB1D4FEA00614B
:1007C0004FEA102042BF002010BC704700EBC3501E
:1007D00010440029A4BF10BC7047401C490008BF4A
:1007E00020F0010010BC704710B5141E73F1000416
:1007F00008DA401C41F1000192185B411A4301D113
:1008000020F0010010BD2DE9F04D92469B4611B13C
:10081000B1FA81F202E0B0FA80F220329046FFF79E
:100820007BFF04460F4640EA0A0041EA0B015346AB
:100830005A46084313D0114653EA010019D0C8F1B3
:1008400040025046FFF777FF05460E465046594690
:100850004246FFF761FF084305D0012004E020462F
:100860003946BDE8F08D0020054346EAE0762C438A
:1008700037430A986305E40AA0EB08000022FD0A4A
:1008800044EA47540A3002D500200146E9E7010551
:1008900010196941DDE9084500196941BDE8F04DCD
:1008A000A2E7C1F30A52C1F3130140F2FF3341F44E
:1008B00080119A4202DA00200146704740F2334329
:1008C0009A42A2F2334202DC5242FFF734BFFFF7F2
:1008D00023BF0000064C074D06E0E06840F001032E
:1008E00094E8070098471034AC42F6D3FFF750FC69
:1008F000BCA90008DCA9000800BFFEE770B50646E9
:100900000C4615462846E91705EB9171891061617F
:1009100000202061012020622146304601F0F4F8D9
:1009200070BD2DE9F04107460E461546002436E01D
:100930002046E11704EB91718910A4EB810131B1DC
:10094000012909D002290CD0032919D10EE055F84C
:1009500024004001306013E055F82400400170602D
:100960000EE055F824004001B06009E055F824007D
:100970004001F060224631463846FFF7BFFF00BF16
:1009800000BF601C55F8200040F6FF71884204D17A
:10099000224631463846FFF7B1FF601CC4B255F815
:1009A000240040F6FF718842C2D1BDE8F08100000A
:1009B00010B5024801F020FA10BD0000BC0700206D
:1009C00010B5024801F018FA10BD0000BC07002065
:1009D00010B5024801F010FA10BD0000BC0700205D
:1009E00010B5024801F008FA10BD0000BC07002055
:1009F00070B506460C4615462846E91705EB917179
:100A000089100E316161012020612062214630464B
:100A100001F07AF870BD2DE9F04107460E46154603
:100A2000002436E02046E11704EB91718910A4EB15
:100A3000810131B1012909D002290CD0032919D132
:100A40000EE055F824004001306013E055F8240012
:100A5000400170600EE055F824004001B06009E0EC
:100A600055F824004001F060224631463846FFF731
:100A7000BFFF00BF00BF601C55F8200040F6FF71AB
:100A8000884204D1224631463846FFF7B1FF601C48
:100A9000C4B255F8240040F6FF718842C2D1BDE8C7
:100AA000F081000010B5024801F0A6F910BD000069
:100AB000E407002010B5024801F09EF910BD0000C7
:100AC000E407002010B5024801F096F910BD0000BF
:100AD000E407002010B5024801F08EF910BD0000B7
:100AE000E407002030B58BB004460D460120079086
:100AF000002008900E200A900A492068884205D1FB
:100B00002A4601A92046FFF70CFF08E006492068A5
:100B1000884204D12A4601A92046FFF77CFF0BB08A
:100B200030BD0000006400400068004000B58BB09C
:100B300014220B4906A8FFF7D4FB182208491431E8
:100B40006846FFF7CEFB074A06A9074806F05EFE97
:100B5000064A6946064806F059FE0BB000BD000083
:100B600024A90008E56A0008BC070020816B000882
:100B7000E407002086B000BF4FF0FF320121684635
:100B800007F028F99DE8070003AB07C3039808287E
:100B9000F2D108F039FB049800F0010058B10020B0
:100BA00000901048B0F90220B0F9001000234FF473
:100BB000007006F08FFD049800F0020018B9049848
:100BC00000F0040058B1002000900648B0F906304B
:100BD000B0F90420002140F2FF1006F0CBFD08F030
:100BE0003DFBC9E7D000002010B52DED028B384841
:100BF0004469002C01DB214600E061420846FFF712
:100C00001CFD41EC180B9FED330B53EC102BFFF741
:100C100039FD03D804203149087055E02C48446957
:100C2000002C01DB214600E061420846FFF705FD8C
:100C300041EC180B9FED2A0B53EC102BFFF722FD14
:100C400003D80320254908703EE021484469002C60
:100C500001DB214600E061420846FFF7EEFC41EC73
:100C6000180B9FED210B53EC102BFFF70BFD03D856
:100C700002201A49087027E015484469002C01DB5E
:100C8000214600E061420846FFF7D7FC41EC180B13
:100C90009FED170B53EC102BFFF7F4FC03D801204A
:100CA0000E49087010E00A494869002801DB014636
:100CB00000E04142064A12694EF660231A4491420E
:100CC00002DA002005490870BDEC028B10BD00005F
:100CD000F8500020676666E63B1C7241EC0000207D
:100CE0009A9999D9592A6B41676666E63B1C62411D
:100CF000676666E63B1C524110B5024801F020FCD5
:100D000010BD0000E40B002010B5024801F018FCF3
:100D100010BD0000240E002010B5024801F010FCA8
:100D200010BD0000240B002010B5024801F008FCA3
:100D300010BD0000840E002010B5024801F000FC38
:100D400010BD0000840B002010B5024801F0F8FB34
:100D500010BD0000640D002010B5024801F0F0FB4A
:100D600010BD0000C40D002010B5024801F0E8FBE2
:100D700010BD0000440C002010B5024801F0E0FB5B
:100D800010BD0000440F002010B5024801F0D8FB50
:100D900010BD0000A40C002010B5024801F0D0FBEB
:100DA00010BD0000E40E002010B5024801F0C8FBA1
:100DB00010BD0000040D00200146087810381823EB
:100DC000B0FBF3F20848805CC865032A05D90868BF
:100DD0006FF30900001D886503E008686FF30900E0
:100DE0008865886D7047000004A90008014600204E
:100DF0008A6A8B69CBB932B1012A0DD0022A03D09D
:100E0000032A10D10EE000BFCB6A03F08073B3F168
:100E1000807F00D1012007E0CB6AB3F1C07F00D111
:100E2000012001E000E000BF34E08B69B3F5005F12
:100E30001AD132B1012A07D0022A03D0032A11D1D4
:100E40000AE000BF01200EE0CB6A03F08073B3F12B
:100E5000807F00D1012006E0CB6AB3F1C07F00D1D2
:100E6000012000E000BF15E032B1012A05D0022ABE
:100E700004D0032A0CD103E000BF00BF012008E02A
:100E8000CB6A03F08073B3F1807F00D1012000E0D2
:100E900000BF00BF704730B50468246824F4802484
:100EA00005682C60046863608468402C04D1046881
:100EB000A2600468E16003E00468A1600468E26085
:100EC00030BD000010B501460F2900DC09B9002033
:100ED00010BD042202EB8102D0B20023074C04F8BB
:100EE00021308A00521CA35480238A00921CA354F0
:100EF0007F238A00D21CA35400BFE9E7D94E00200B
:100F000010B52DED020B0C4890F84100401C0A4929
:100F100081F84100084690F841000F2800DD1CBD13
:100F2000054890F84100401E8006020E02496846BE
:100F300000F0CAFA00BFF2E7D94E002010B504460F
:100F400000F026F8114991F84100FFF7BBFF0F4967
:100F500081F8400000200CE000BF2168096801F022
:100F600040010029F9D00949095C22685160411CFF
:100F7000C8B2064991F840108142EDDC00200349D7
:100F800081F8410081F8400010BD0000D94E0020DA
:100F900010B58B48007830B1012853D002287DD09D
:100FA00003287CD1C5E08748D0ED010AB0EE600A85
:100FB000FFF7A6FF8348D0ED030AB0EE600AFFF703
:100FC0009FFF8048B0F9140000EE900AF8EEE00AA6
:100FD000B0EE600AFFF794FF7B48D0ED090AB0EE4F
:100FE000600AFFF78DFF7848D0ED0A0AB0EE600A7C
:100FF000FFF786FF7348D0ED020AB0EE600AFFF7F4
:101000007FFF7048D0ED040AB0EE600AFFF778FF6A
:101010006C48B0F9160000EE900AF8EEE00AB0EE67
:10102000600AFFF76DFF6848D0ED2B0AB0EE600A4A
:10103000FFF766FF6448D0ED2C0AB0EE600AFFF7B8
:101040005FFFBAE06148D0ED040AF8EEE00AB0EEC6
:10105000600AFFF755FF5D48D0ED050AF8EEE00A9B
:10106000B0EE600AFFF74CFF5848D0ED000AB0EE32
:10107000600AFFF745FF5548D0ED010AB0EE600A5F
:10108000FFF73EFF9FED520AFFF73AFF4F48B0F9D6
:10109000180000EE900AF8EEE00A01E005E08BE0AF
:1010A000B0EE600AFFF72CFF87E04A48D0ED020A55
:1010B000B0EE600AFFF724FF4648D0ED030AB0EE19
:1010C000600AFFF71DFF4348D0ED000AB0EE600A4A
:1010D000FFF716FF3F48D0ED010AB0EE600AFFF7B8
:1010E0000FFF3C48B0F9140000EE900AF8EEE00A59
:1010F000B0EE600AFFF704FF3748D0ED0A0AB0EE01
:10110000600AFFF7FDFE3448D0ED090AB0EE600A30
:10111000FFF7F6FE3148D0ED0A0AB0EE600AFFF79D
:10112000EFFE2E48D0ED090AB0EE600AFFF7E8FEA8
:1011300043E02B48007800EE100AB8EE400AFFF7B3
:10114000DFFE2848007800EE100AB8EE400AFFF7EC
:10115000D7FE2548B0F9060000EE900AF8EEE00A46
:10116000B0EE600AFFF7CCFE1F48B0F9080000EEB1
:10117000900AF8EEE00AB0EE600AFFF7C1FE1B48E5
:10118000007800EE100AB8EE400AFFF7B9FE1148E9
:10119000807D00EE900AF8EE600AB0EE600AFFF77C
:1011A000AFFE0A48807E00EE900AF8EE600AB0EECC
:1011B000600AFFF7A5FE00BF00BF00BF10BD000022
:1011C000EA000020E0500020D04F0020F85000201E
:1011D000DFE1904BB0520020C85200205053002055
:1011E000DA000020DB0000201C4F00200D01002051
:1011F0007047000008B506F0B3FD00900AE008F063
:1012000003F80548FFF79AFE08F028F8022168461F
:1012100006F093FDF3E700004C0A002072B600BF11
:10122000FEE7000010B5002201B909E0012901D153
:101230000A0205E0022901D10A0201E04FF44072DE
:101240000E4B1B6823F440730C4C236023461B6831
:101250001343236023461B6823F0F80323602346CF
:101260001B68022444EAC0042343044C2360234641
:101270001B6843F48033236010BD0000103C024023
:101280001C48006800F40070B0B11A48006820F4EF
:1012900000701849086000BF0846006840F400600C
:1012A00008600846006820F40060086000BF084637
:1012B000006840F4007008600E48006800F4806028
:1012C000B0B10C48006820F480600A49086000BF93
:1012D0000846006840F4805008600846006820F422
:1012E0008050086000BF0846006840F480600860D5
:1012F00070470000003C02400A4A126822F4407223
:10130000084B1A601A46126842F004021A601A4624
:1013100012684FF4803343EA00231A43014B1A60EA
:1013200070470000103C0240074A126822F44072E5
:10133000054B1A601A4612681A601A46126842F083
:1013400001021A6001707047103C024010B50A4952
:10135000096821F44071084C21602146096841F474
:10136000407121602146096841F00101216002605D
:10137000BFF36F8F436010BD103C0240084A1268F3
:1013800022F44072064B1A601A46126842F48072C8
:101390001A601A46126842F001021A600180704712
:1013A000103C0240084A126822F44072064B1A6050
:1013B0001A46126842F400721A601A46126842F025
:1013C00001021A6001607047103C02402348006827
:1013D00000F0100040B12248C06940F010002049E0
:1013E000C86110201D4908601C48006800F02000FA
:1013F00040B11B48C06940F008001949C86120206D
:10140000164908601548006800F0400040B11448D3
:10141000C06940F004001249C86140200F490860CB
:101420000E48006800F0800040B10D48C06940F0EF
:1014300002000B49C861802008490860074800681D
:1014400000F0020040B10648C06940F020000449A5
:10145000C861022001490860704700000C3C02404E
:10146000EC0F002070B50446002500201449C86127
:1014700001F014FC054609E0601C38B124B101F00C
:101480000DFC401BA04201D9032070BD0D4800682F
:1014900000F480300028EFD10A48006800F0010015
:1014A00010B10120074908600648006800F0F2000A
:1014B00018B1FFF78BFF0120E7E70020E5E7000008
:1014C000EC0F00200C3C024030B503461C788C54D5
:1014D0005D78541C0D559D78941C0D55DD78D41CF9
:1014E0000D5530BD02490870024908707047000070
:1014F000E0500020E900002010B52248007898BB99
:10150000214890ED020ADFED210AB4EEE00AF1EE87
:1015100010FA10D21E480078C0EB4030A0F55030D1
:10152000083800F57A7000EE100AB8EEC00A1648C6
:1015300080ED030A23E01448D0ED020A1448007835
:10154000C0EB4030A0F55030083800EE100AB8EE7D
:10155000C00AF4EEC00AF1EE10FA10DD9FED0D0A9C
:10156000094880ED030A0AE0FFE7064800780128F1
:1015700005D1094890ED000A034880ED030A00F008
:1015800039F910BD04010020B052002000084FC8F6
:101590000C010020000250C80801002010B52DEDFC
:1015A0000A8B00F05FF82448807D05283DD2DFE8F3
:1015B00000F006030A38390000F06CF836E000202D
:1015C0001D49888232E01D49B1F90200FFF735F864
:1015D00041EC1C0B9FED1A0B53EC102BFEF7BEFFDA
:1015E00041EC1B0B9FED180B53EC102BFEF744FF47
:1015F00041EC190B104890ED030A10EE101A084642
:10160000FFF72CF841EC1A0B53EC192BFEF72EFFC9
:1016100041EC180BFFF74EF80749C86000F0EAF8F4
:1016200004E003E0FFF768FF00E000BF00BF00F048
:101630000FF8BDEC0A8B10BDB05200201C4F0020EB
:101640000000000000F08440FCA9F1D24D6260402F
:101650000248808A0249888070470000B05200200A
:10166000D00000200948B0F9040000EE100AB8EEDE
:10167000C00A074880ED000A044890ED030AB8EE5E
:10168000C00A034880ED020A70470000B84F0020EE
:10169000B052002010B51A480078B8B99FED190A69
:1016A000194880ED010A90ED011AF0EE410A90ED23
:1016B000001AB0EE410A154803F0F4FDBDEEC00A71
:1016C00010EE100A00B21049888218E00C48007829
:1016D000012814D107F098FD0D4800880C490882B4
:1016E0000020886007F0BAFD00200749888208487A
:1016F00090ED030AB8EEC00A084680ED040A10BD5A
:10170000DA0000200000FA43B0520020C852002046
:10171000B84F0020052822D2DFE800F007030B199C
:101720001D0001210F4A917519E000210D4A9175A4
:1017300015E00D49B1F90810B1F5167F03DD02215E
:10174000084A917502E00021064A917507E00321DD
:10175000044A917503E00421024A917500BF00BF5D
:1017600070470000B05200201C4F002010B5002030
:1017700018498875A023DFED183A9FED173AF3EE6C
:10178000042A9FED162ADFED141A9FED151ADFEDDE
:10179000150AB7EE000A142240F6FF71124803F052
:1017A00039FE8123DFED0C3A9FED0B3ADFED0A2A7B
:1017B0009FED092ADFED081A9FED071ADFED0B0AEE
:1017C0009FED050A002247F23051094803F022FE3E
:1017D00010BD0000B0520020000000000000C84210
:1017E0000AD7A33C6666863F50530020CDCC2042EA
:1017F000C852002010B5504890ED030AB5EEC00A5B
:10180000F1EE10FA09D890ED030ADFED4C0AB4EEC0
:10181000E00AF1EE10FA00DB11E0474890ED030A10
:10182000B5EEC00AF1EE10FA04DD9FED450A80ED39
:10183000030A04E09FED410A3F4880ED030A3E4859
:1018400090ED030AB5EEC00AF1EE10FA14DB90ED4C
:10185000030AB1EE400AF0EE401A90ED030AB0EE32
:10186000401A90ED030AF0EE400A364890ED000A67
:10187000354807F0D1F814E02F4890ED030AF0EE58
:10188000401A90ED030AB1EE400AB0EE401A90ED16
:10189000030AF0EE400A2B4890ED000A2A4807F0B0
:1018A000BBF8294890ED011AF0EE410A224890ED6C
:1018B000021AB0EE410A254803F0F4FC1E4880ED00
:1018C000010A90ED010ADFED220AB4EEE00AF1EE22
:1018D00010FA09D890ED010ADFED1E0AB4EEE00A15
:1018E000F1EE10FA00DB13E0134890ED010ADFED92
:1018F000180AB4EEE00AF1EE10FA04DD9FED140AC6
:1019000080ED010A04E09FED130A0B4880ED010A07
:10191000094890ED011AF0EE410A90ED001AB0EE80
:10192000410A0D4803F0BEFCBDEEC00A10EE100ADD
:1019300000B20149888210BDB0520020000250C898
:101940000000000000010020D85300205053002068
:1019500000004843000048C3C852002008B506F004
:10196000FFF90090FFF702FF0EE008480078FFF74C
:10197000D1FEFFF713FE04210548006806F0FAF9CE
:101980000221684606F0D9F9EFE700000D010020BA
:101990000400002010B5024692F82030012B01D03F
:1019A000022B06D11068406908431468606100206A
:1019B00010BD506A40F4802050620120F8E7F0B575
:1019C00004460D461E4694F8207020688368A86877
:1019D00000B900E000BF012F01D0022F7DD103F03C
:1019E000806030B903F0006018B903F0805000281F
:1019F0007ED0C3F30161012088403060A86860B9DF
:101A0000B5F800C0E86840EA4C5C206800F5C0709A
:101A100000EB0110C0F800C00FE0D5E901C040EABA
:101A2000CC00D5F80CC040EA0C00D4F800C00CF58E
:101A3000C07C0CEB011CCCF80000D5F810C020686D
:101A400000F5C07000EB0110C0F804C0287D01282B
:101A50000ED1206800F5C07000EB0110406840F422
:101A6000807C206800F5C07000EB0110C0F804C055
:101A7000D079000692F806C040EA0C4092F805C002
:101A800040EA0C2092F804C040EA0C00D4F800C0F0
:101A90000CF5C07C0CEB011CCCF80C00D0780006D7
:101AA00092F802C040EA0C4092F801C040EA0C20D3
:101AB00092F800C040EA0C00D4F800C00CF5C07CDD
:101AC0000CEB011CCCF80800206800F5C07000EB9E
:101AD0000110006840F0010C01E00FE008E0206810
:101AE00000F5C07000EB0110C0F800C00020F0BD90
:101AF000606A40F4001060620120F8E7606A40F418
:101B0000802060620120F2E7F0B504460A462168B1
:101B100094F82050012D01D0022D7ED1424901F5CB
:101B20000071086840F001000860086820F47C50EB
:101B300008600868566A40EA06200860107D00F0D8
:101B40001F06012000FA06F3C8699843C861A1F591
:101B50000071D069C8B9D1F80C029843C1F80C02E1
:101B6000908880B2968940EA064601F51070576960
:101B700040F83760108880B2168940EA064601F5C1
:101B80001070576900EBC7004660D069012819D171
:101B9000D1F80C021843C1F80C02908880B2168864
:101BA00040EA064601F51070576940F837609089A1
:101BB00080B2168940EA064601F51070576900EBBD
:101BC000C7004660906928B9D1F804029843C1F86B
:101BD000040204E0D1F804021843C1F804021069B9
:101BE00028B9D1F814029843C1F8140204E0D1F8DE
:101BF00014021843C1F81402106A012804D1D1F864
:101C00001C021843C1F81C02D1F8000220F00100A8
:101C1000C1F800020020F0BDFFE7606A40F48020B8
:101C200060620120F7E7000000640040704770B573
:101C3000044694F82050012D01D0022D7DD151B9D8
:101C40002068C06800F0030080B9606A40F40010AA
:101C50006062012070BD2068006900F0030028B9AF
:101C6000606A40F4001060620120F3E7206800F52C
:101C7000D87000EB0110006800F0040090609068DC
:101C800040B9206800F5D87000EB01100068400DE5
:101C9000106007E0206800F5D87000EB01100068C4
:101CA000C0085060206800F5D87000EB0110006893
:101CB00000F00200D060206800F5D87000EB011041
:101CC000406800F00F00082802D30820106108E0E7
:101CD000206800F5D87000EB0110406800F00F009C
:101CE0001061206800F5D87000EB0110406800F426
:101CF0007F40000A9061206800F5D87000EB011069
:101D00004068000C5061206800F5D87000EB0110AD
:101D100080681870206800F5D87000EB01108068AA
:101D200000F47F40000A5870206800F5D87000EB7E
:101D30000110806800F47F0000E03CE0000C987027
:101D4000206800F5D87000EB01108068000ED87094
:101D5000206800F5D87000EB0110C0681871206889
:101D600000F5D87000EB0110C06800F47F40000A55
:101D70005871206800F5D87000EB0110C06800F4BD
:101D80007F00000C9871206800F5D87000EB0110FE
:101D9000C068000ED87131B92068C06840F02000DA
:101DA0002668F06005E02068006940F020002668A1
:101DB000306100204EE7606A40F4802060620120BC
:101DC00048E70146002091F82020012A01D0022A8C
:101DD00011D10B689B6803F0806303B1401C0B6852
:101DE0009B6803F0006303B1401C0B689B6803F021
:101DF000805303B1401C70472DE9F05F0446002575
:101E0000206846692068D0F80490206887682068B8
:101E1000D0F80CA02068D0F810B02068D0F8188056
:101E200006F00100002855D007F00100C0B10120E4
:101E30002168886007F0020018B1204600F00DFB11
:101E40000EE007F0040010B145F4006508E007F06B
:101E5000080010B145F4805502E0204600F0FCFA7D
:101E600007F48070C8B14FF480702168886007F46F
:101E7000007018B1204600F0F2FA0EE007F480601E
:101E800010B145F4005508E007F4006010B145F4C6
:101E9000804502E0204600F0E1FA07F48030C8B146
:101EA0004FF480302168886007F4003018B1204674
:101EB00000F0D7FA0EE007F4802010B145F4004599
:101EC00008E007F4002010B145F4803502E0204618
:101ED00000F0C6FA06F0080038B10AF0100020B190
:101EE00045F4007510202168C86006F0040040B178
:101EF0000AF0080028B108202168C860204600F0D8
:101F00003FFA06F0020038B12068C06800F0030014
:101F100010B1204600F036FA06F0400038B10BF060
:101F2000100020B145F4806510202168086106F09A
:101F3000200040B10BF0080028B10820216808619A
:101F4000204600F03BFA06F0100038B12068006926
:101F500000F0030010B1204600F032FA06F4003021
:101F600040B109F0100028B11020216848602046D7
:101F700000F042FA06F4803040B109F0080028B1C0
:101F8000082021684860204600F06CFA06F4004002
:101F900088B309F0040078B306F4807020B108F02B
:101FA000010008B145F0010506F4007020B108F009
:101FB000020008B145F0020506F4806020B108F087
:101FC000040008B145F0040506F40060A0B108F073
:101FD000700088B108F07000402817D006DC102887
:101FE0000BD020280CD0302819D10CE0502810D06C
:101FF000602814D110E01DE019E045F008050FE05D
:1020000045F010050CE045F0200509E045F04005DD
:1020100006E045F0800503E045F4807500E000BF70
:1020200000BF2068806920F070002168886104206A
:10203000216848602DB1606A284360622046FFF73E
:10204000F5FDBDE8F09F70B504460CB9012070BDE8
:1020500094F8200010B9204600F0B0F8206800681D
:1020600040F001002168086000F018FE05460DE010
:1020700000F014FE401B0A2808D9606A40F40030C2
:102080006062052084F820000120E0E720684068B5
:1020900000F001000028EBD02068006820F002006A
:1020A0002168086000F0FAFD05460DE000F0F6FD3D
:1020B000401B0A2808D9606A40F40030606205209D
:1020C00084F820000120C2E72068406800F0020088
:1020D0000028EBD1207E012806D12068006840F05E
:1020E00080002168086005E02068006820F080001A
:1020F00021680860607E012806D12068006840F0F1
:1021000040002168086005E02068006820F0400079
:1021100021680860A07E012806D12068006840F090
:1021200020002168086005E02068006820F0200099
:1021300021680860E07E012806D12068006820F050
:1021400010002168086005E02068006840F0100079
:1021500021680860207F012806D12068006840F0CF
:1021600008002168086005E02068006820F0080089
:1021700021680860607F012806D12068006840F06F
:1021800004002168086005E02068006820F0040071
:1021900021680860D4E902010843216908436169A4
:1021A00008436168491E08432168C86100206062D5
:1021B000012084F82000002049E7000010B586B017
:1021C0000446142101A8FEF7A5F867492068884253
:1021D00059D166480068401C644908600846006898
:1021E00001280FD100BF002000906148006840F036
:1021F00000705F4908600846006800F000700090B9
:1022000000BF00BF00BF0020009059481038006890
:1022100040F008005649103908600846006800F090
:102220000800009000BF00BF032001900220029030
:1022300000200390032004900920059001A94D4837
:1022400000F024FC00220521132000F0EFFD1320F4
:1022500000F0D8FD00220521142000F0E7FD142035
:1022600000F0D0FD00220521152000F0DFFD152033
:1022700000F0C8FD00220521162000F0D7FD162031
:1022800000F0C0FD6DE03C492068884269D100BF84
:10229000002000903648006840F0806034490860B3
:1022A0000846006800F08060009000BF00BF2F4823
:1022B0000068401C2D4908600846006801280FD1BD
:1022C00000BF002000902A48006840F000702849B4
:1022D00008600846006800F00070009000BF00BF72
:1022E00000BF0020009022481038006840F0020033
:1022F0001F49103908600846006800F0020000908D
:1023000000BF00BF4FF44050019002200290002017
:102310000390032004900920059001A9174800F0BC
:10232000B5FB002205213F2000F080FD3F2000F09A
:1023300069FD00220521402000F078FD402000F0DA
:1023400061FD00220521412000F070FD412000F0D8
:1023500059FD00220521422000F068FD422000F0D6
:1023600051FD06B010BD00000064004020000020B8
:1023700040380240000C0240006800400004024067
:102380007047000010B504460949206888420DD105
:10239000084BA3F11C0200212046FFF748FC054929
:1023A0001C3908681C31044A1268904710BD0000AF
:1023B00000640040404E0020B00000207047000044
:1023C00010B504460949206888420DD1084BA3F195
:1023D0001C0201212046FFF72AFC05491C39086828
:1023E0001C31044A1268904710BD0000006800408C
:1023F000404E0020B4000020704770B5044694F8A9
:102400002000012822D1022084F8200020680068E2
:1024100020F001002168086000F040FC05460DE056
:1024200000F03CFC401B0A2808D9606A40F40030E8
:102430006062052084F82000012070BD206840689B
:1024400000F001000028EBD16062F6E7606A40F41A
:10245000002060620120F0E77047704770477047C6
:1024600070477047704770B50446A56D00F016FCC4
:10247000064694F83500022808D08020606500BF29
:10248000002084F8340000BF012070BD206800687F
:1024900020F01600216808602068406920F0800064
:1024A00021684861206C08B9A06C28B120680068D8
:1024B00020F00800216808602068006820F0010012
:1024C0002168086010E000F0E9FB801B05280BD9AB
:1024D00020206065032084F8350000BF002084F8C8
:1024E000340000BF0320D0E72068006800F001003E
:1024F0000028E8D194F85C103F208840A8600120B3
:1025000084F8350000BF002084F8340000BF00BF0D
:10251000BBE7014691F83500022803D080204865CA
:1025200001207047052081F835000868006820F018
:1025300001000A6810600020F3E70146486D70470B
:10254000F8B50446002000908C4800684FF41651FE
:10255000B0FBF1F7A56D2E6894F85C100820884058
:10256000304098B12068006800F0040070B1206825
:10257000006820F004002168086094F85C100820CE
:102580008840A860606D40F00100606594F85C10C0
:1025900001208840304068B12068406900F0800028
:1025A00040B194F85C1001208840A860606D40F054
:1025B0000200606594F85C1004208840304068B1E7
:1025C0002068006800F0020040B194F85C1004201C
:1025D0008840A860606D40F00400606594F85C106D
:1025E00010208840304078B32068006800F0080070
:1025F00050B394F85C1010208840A86020680068F0
:1026000000F4802080B12068006800F4002028B920
:10261000206CC8B12046216C884715E0A06C98B1A9
:102620002046A16C88470FE02068006800F48070A5
:1026300028B92068006820F0080021680860206C34
:1026400010B12046216C884794F85C102020884007
:102650003040002865D02068006800F01000002895
:102660005FD094F85C1020208840A86094F8350072
:10267000052828D12068006820F01600216808602D
:102680002068406920F0800021684861206C08B90A
:10269000A06C28B12068006820F00800216808605C
:1026A00094F85C103F208840A860012084F8350031
:1026B00000BF002084F8340000BF206D10B1204618
:1026C000216D8847F8BD2068006800F4802080B143
:1026D0002068006800F4002028B9606C10B1204622
:1026E000616C88471DE0E06BD8B12046E16B8847FC
:1026F00017E02068006800F4807068B920680068FE
:1027000020F0100021680860012084F8350000BF27
:10271000002084F8340000BFE06B10B12046E16B6C
:102720008847606D38B3606D00F00100F0B105209E
:1027300084F835002068006820F0010021680860F6
:1027400000BF0098401C0090B84200D905E0206806
:10275000006800F001000028F3D100BF012084F8D8
:10276000350000BF002084F8340000BFE06C10B1D9
:102770002046E16C884700BFA4E70000300000203D
:102780002DE9F0410446002500F088FA074614B907
:102790000120BDE8F081606A00B100BF022084F82A
:1027A000350000BF002084F8340000BF20680068B6
:1027B00020F00100216808600AE000F06FFAC01BF9
:1027C000052805D920206065032084F83500E0E75E
:1027D0002068006800F001000028EED1206805683C
:1027E00021480540D4E901010843E1680843216913
:1027F000084361690843A1690843E1690843216A04
:1028000008430543606A042803D1D4E90B01084357
:102810000543206805602068456925F00705606A62
:102820000543606A04280DD1A06A0543E06A48B1F7
:102830002046FEF7DBFA28B140206065012084F8CD
:102840003500A6E7206845612046FEF7B5FA064642
:1028500094F85C103F208840B06000206065012043
:1028600084F83500002094E73F8010F02DE9F04710
:1028700004460D4616461F464FF00008D4F85890FF
:1028800000BF94F83400012802D10220BDE8F0878F
:10289000012084F8340000BF94F83500012825D1C8
:1028A000022084F83500002060653B463246294608
:1028B0002046FEF7F0FA94F85C103F208840C9F8F3
:1028C00008002068006840F0160021680860206C4D
:1028D00028B12068006840F008002168086020687E
:1028E000006840F001002168086006E000BF002099
:1028F00084F8340000BF4FF002084046C6E70000ED
:102900002DE9F04104460E460127002500BF254869
:10291000007E012802D10220BDE8F081012021497A
:10292000087600BF4CF25030FEF79CFD0746002FA2
:1029300031D1401E3060206801280FD1207C6168B1
:10294000FEF7DAFC4CF25030FEF78CFD07461648D5
:10295000006820F00400144908601AE0A56812E03D
:10296000217C2846FEF75EFC4CF25030FEF77AFDE3
:1029700007460D48006820F0FA000B4908600FB1C7
:10298000356005E06D1CD4E902100844A842E7D880
:1029900000BFFEF775FC00BF00200249087600BFAB
:1029A0003846B9E7EC0F0020103C024003480068AD
:1029B00040F000400149086000207047103C024090
:1029C0002DE9F04106460F4614461D464FF001081A
:1029D00000BF1F48007E012802D10220BDE8F0811F
:1029E00001201B49087600BF4CF25030FEF73AFD3B
:1029F0008046B8F1000F23D126B9E1B23846FEF780
:102A000093FC12E0012E04D1A1B23846FEF7B6FCC9
:102A10000BE0022E04D121463846FEF7C3FC04E049
:102A200022462B463846FEF791FC4CF25030FEF71A
:102A300019FD80460748006820F00100054908603C
:102A400000BF00200249087600BF4046C6E70000EC
:102A5000EC0F0020103C024000200949096801F0F9
:102A6000004159B10749064A0C3A11600649116004
:102A70000349096801F0004101B1012070470000DD
:102A8000103C024023016745AB89EFCDF8B5024603
:102A90000B460025002400200021D6E0012606FA7E
:102AA00001F51E6806EA0504AC4274D11E7906F0F1
:102AB0000306012E04D01E7906F00306022E13D160
:102AC00090684F000326BE40B0434F00DE68BE4012
:102AD00030439060506801268E40B0431E79C6F3A3
:102AE00000168E40304350601E7906F00306032E18
:102AF00009D0D0684F000326BE40B0434F009E6807
:102B0000BE403043D0601E7906F00306022E13D17A
:102B1000CF0802F1200656F827004E07F70E0F26C1
:102B2000BE40B0434F07FF0E1E69BE403043CF0882
:102B300002F1200646F8270010684F000326BE4029
:102B4000B0431E7906F003064F00BE4030431060CC
:102B50005E6806F44036002E76D000BF0026009650
:102B60003C4E366846F480463A4F3E603E463668F4
:102B700006F48046009600BF00BF374E8F0856F817
:102B800027008E07370F0F26BE40B043334EB242A8
:102B900002D1002624E057E0314EB24201D1012695
:102BA0001EE0304EB24201D1022619E02E4EB24252
:102BB00001D1032614E02D4EB24201D104260FE0CC
:102BC0002B4EB24201D105260AE02A4EB24201D173
:102BD000062605E0284EB24201D1072600E008266D
:102BE0008F073F0FBE4030431B4E8F0846F827002B
:102BF000224E3068A0435E6806F4801606B120437A
:102C00001E4E3060361D3068A0435E6806F4001624
:102C100006B12043194E361D3060184E361F3068FD
:102C2000A0435E6806F4003606B12043134E361FFB
:102C30003060361F3068A0435E6806F4803606B107
:102C400020430E4E083E3060491C1029FFF426AF89
:102C5000F8BD00004438024008380140000002403E
:102C60000004024000080240000C02400010024034
:102C70000014024000180240001C0240083C0140C1
:102C8000024613690B400BB1012000E000207047A1
:102C90000AB1816101E00B0483617047014800685B
:102CA00070470000240000200348006803490978A9
:102CB0000844014908607047240000202C000020CF
:102CC00010B50D48006840F400700B4908600846D4
:102CD000006840F4806008600846006840F4807036
:102CE0000860032000F0E0F80F2000F007F800F083
:102CF0005FF8002010BD0000003C02402DE9F041CB
:102D000088B004460027B84600BF00200190244840
:102D1000006840F00100224908600846006800F0A1
:102D20000100019000BF00BF02A903A800F092F9C2
:102D3000069F1FB900F0B6F9054602E000F0B2F9AF
:102D400045001848B5FBF0F0A0F101084FF08040B5
:102D50001549086040F2E7311348C160C0F80480AB
:102D6000002101618160816100F0BCFC064696B9DA
:102D70000D4800F08DFD06466EB91C2000F042F8AB
:102D8000102C07D2002221461C2000F04FF80748E3
:102D9000046000E00126304608B0BDE8F081000084
:102DA0004038024040420F00A40F002028000020BD
:102DB00008B500BF002000901148006840F4804032
:102DC0000F4908600846006800F48040009000BF8A
:102DD00000BF00BF00200090081F006840F0805036
:102DE000091F08600846006800F08050009000BF8E
:102DF00000BF00220F21901E00F018F808BD00004F
:102E0000443802400146084600280DDB00BF00BFE1
:102E100000F01F0301229A4043099B0003F1E023C5
:102E2000C3F8002100BF00BF00BF70472DE9F05F6D
:102E300080460D461646002703F0BCFF074639467C
:102E40002A46334601F00700C0F1070ABAF1040F21
:102E500002D94FF0040A01E0C0F1070AD14600F19F
:102E6000040ABAF1070F02D24FF0000A01E0A0F104
:102E7000030AD4464FF0010A0AFA09FAAAF1010A34
:102E80000AEA020A0AFA0CFA4FF0010B0BFA0CFBE1
:102E9000ABF1010B0BEA030B4AEA0B042146404657
:102EA00003F090FFBDE8F09F00BF00F00702064B63
:102EB00019684FF6FF031940044B0B4343EA022104
:102EC000014B196000BF70470CED00E00000FA05EF
:102ED00070B504460D460CB9012070BD5848006815
:102EE00000F00700A84209D255490D700846006855
:102EF00000F00700A84201D00120EEE7207800F0A2
:102F0000020002281DD1207800F00400042805D119
:102F10004C48006840F4E0504A490860207800F0CE
:102F20000800082805D14748006840F4604045493A
:102F300008604448006820F0F000A1680843414957
:102F40000860207800F00100A8B36068012807D16C
:102F50003C4808380068C0F34040B8B90120BCE7DD
:102F60006068022802D06068032807D13548083815
:102F70000068C0F3406048B90120AEE73148083826
:102F80000068C0F3400008B90120A6E72D4800689A
:102F900020F00300616808432A490860FFF77EFEBD
:102FA000064609E0FFF77AFE801B41F2883188422D
:102FB00002D9032091E707E02248006800F00C00E6
:102FC0006168B0EB810FEDD11D48006800F007008B
:102FD000A84209D91A490D700846006800F0070098
:102FE000A84201D0012078E7207800F004000428EE
:102FF00007D11448006820F4E050E1680843114903
:103000000860207800F00800082808D10D48006802
:1030100020F46040216940EAC1000A49086000F0DC
:1030200061F808490968C1F30311074A515CC840B7
:103030000649086006480068FFF760FE00204CE77C
:10304000003C0240083802400CA900083000002073
:10305000280000200F2202600D4A126802F00302CD
:1030600042600B4A126802F0F0028260084A12685D
:1030700002F4E052C260064A126802F46042D208CA
:103080000261044A126802F007020A6070470000F9
:1030900008380240003C02400148006870470000C8
:1030A0003000002000B5FFF7F7FF04490968C1F3BD
:1030B0008221034A515CC84000BD0000083802402C
:1030C0001CA9000800B5FFF7E7FF04490968C1F330
:1030D0004231034A515CC84000BD0000083802403C
:1030E0001CA900082DE9F047002400250026A14670
:1030F0002548006800F00C0020B1042805D00828FD
:103100003AD105E0DFF8849039E0DFF8809036E0CE
:103110001D48001F006800F03F041B48001F0068A6
:1031200000F4800078B119481749091F0968C1F3F4
:103130008811A0FB01700146224600233846FDF7A6
:103140009FF805460EE011480F49091F0968C1F3B1
:103150008811A0FB01700146224600233846FDF786
:103160008FF805460848001F0068C0F30140401C66
:103170004600B5FBF6F902E0DFF8109000BF00BF93
:103180004846BDE8F0870000083802400024F400FB
:10319000F8B504460CB90120F8BD207800F0010014
:1031A000002874D0F948006800F00C0004280DD005
:1031B000F648006800F00C00082813D1F348001FFF
:1031C000006800F48000B0F5800F0BD1EF4808389C
:1031D0000068C0F34040002859D06068002856D1EC
:1031E0000120D9E700BF6068B0F5803F08D1E7480B
:1031F0000838006840F48030E449083908601EE06F
:103200006068B0F5A02F0DD1E0480838006840F4A0
:103210008020DE49083908600846006840F48030A4
:1032200008600CE0D9480838006820F48030D7499D
:10323000083908600846006820F48020086000BF54
:10324000606890B1FFF72AFD054606E0FFF726FD0E
:10325000401B642801D903209EE7CC480838006849
:10326000C0F340400028F1D011E0FFF717FD0546FC
:1032700006E0FFF713FD401B642801D903208BE70C
:10328000C24808380068C0F340400028F1D12078D7
:1032900000F0020002285FD1BC48006800F00C007A
:1032A00058B1BA48006800F00C0008281CD1B74893
:1032B000001F006800F48000B0B9B4480838006806
:1032C000C0F3400020B1E068012801D0012063E78D
:1032D000AE480838006820F0F800216940EAC100D3
:1032E000AA490839086037E0E06800B30120A8491E
:1032F0000860FFF7D3FC054606E0FFF7CFFC401B54
:10330000022801D9032047E7A04808380068C0F325
:1033100040000028F1D09D480838006820F0F800EF
:10332000216940EAC10099490839086014E0002089
:1033300097490860FFF7B2FC054606E0FFF7AEFCD0
:10334000401B022801D9032026E79048083800686E
:10335000C0F340000028F1D1207800F008000828D0
:103360002CD16069A8B101208A490860FFF796FC5A
:10337000054606E0FFF792FC401B022801D9032016
:103380000AE782486C300068C0F340000028F1D0A2
:1033900014E000207F490860FFF780FC054606E046
:1033A000FFF77CFC401B022801D90320F4E6774894
:1033B0006C300068C0F340000028F1D1207800F0A4
:1033C0000400042870D1002770483830006800F0ED
:1033D000805090B900BF002000906C4838300068E1
:1033E00040F080506949383108600846006800F0B4
:1033F0008050009000BF00BF01276748006800F4BC
:103400008070B0B96448006840F480706249086018
:10341000FFF744FC054606E0FFF740FC401B02288E
:1034200001D90320B8E65C48006800F480700028E9
:10343000F2D000BFA068012808D154486830006865
:1034400040F001005149683108601DE0A06805287E
:103450000DD14E486830006840F004004B49683197
:1034600008600846006840F0010008600CE047482A
:103470006830006820F0010044496831086008465F
:10348000006820F00400086000BFA068A8B1FFF742
:1034900005FC054609E0FFF701FC401B41F28831BD
:1034A000884202D9032077E626E038486830006871
:1034B000C0F340000028EED013E0FFF7EFFB054615
:1034C00008E0FFF7EBFB401B41F28831884201D94D
:1034D000032061E62D4868300068C0F340000028F2
:1034E000EFD1012F07D129483830006820F08050F3
:1034F00026493831086000BFA069002845D023481C
:10350000006800F00C0008285DD0A069022845D1B1
:1035100000201F490866FFF7C1FB054606E0FFF7DC
:10352000BDFB401B022801D9032035E617480838A7
:103530000068C0F340600028F1D1D4E907010843D6
:10354000616A40EA81110122A06AC2EB500041EA9F
:1035500000412C20005D41EA00600C49091F086011
:1035600001200B490866FFF799FB054606E0FFF7C7
:1035700095FB401B022801D903200DE603480838BB
:103580000068C0F340600028F1D049E008380240EC
:1035900000004742800E4742007000400020214951
:1035A0000866FFF77BFB054606E0FFF777FB401B4D
:1035B000022801D90320EFE51B480068C0F34060F2
:1035C0000028F2D12CE0A069012800D1E4E51648DA
:1035D000001D0668A069012820D006F48001E0697A
:1035E00081421BD106F03F01206A814216D147F685
:1035F000C0703040616AB0EB811F0FD106F44031DA
:103600000122A06AC2EB5000B1EB004F06D106F0D8
:1036100070612C20005DB1EB006F01D00120BBE593
:103620000020B9E50000474200380240704770476B
:1036300030B502460B4600BF92F83C00012801D18C
:10364000022030BD012082F83C0000BF022082F839
:103650003D00106844681068816824F070041868A0
:10366000044310684460184D1068A8421BD01068CD
:10367000B0F1804F17D0154D1068A84213D0144DEB
:103680001068A8420FD0134D1068A8420BD0124DFD
:103690001068A84207D0114D1068A84203D0104D01
:1036A0001068A84205D121F08001586801431068D4
:1036B0008160012082F83D0000BF002082F83C00BC
:1036C00000BF00BFBDE70000000001400004004053
:1036D00000080040000C0040000401400040014090
:1036E0000018004010B504460CB9012010BD94F834
:1036F0003D0028B9002084F83C00204600F026F860
:10370000022084F83D00211D206802F0E7FB012023
:1037100084F8460000BF84F83E0001213F20015597
:10372000402001554120015500BF00BF012084F811
:10373000420043200155442001554520015500BF5A
:10374000012084F83D000020D0E7000038B5044691
:1037500049492068884218D100BF0020009047489E
:10376000006840F00200454908600846006800F023
:103770000200009000BF00BF002205211D20FFF7BE
:1037800055FB1D20FFF73EFB74E03D492068884251
:1037900018D100BF002000903848006840F00400B5
:1037A000364908600846006800F00400009000BF39
:1037B00000BF002205211E20FFF738FB1E20FFF767
:1037C00021FB57E02F492068884218D100BF002014
:1037D00000902A48006840F0080028490860084620
:1037E000006800F00800009000BF00BF0022052123
:1037F0003220FFF71BFB3220FFF704FB3AE022499F
:10380000206888421AD100BF002000901B48001D8C
:10381000006840F480301949091D086008460068B6
:1038200000F48030009000BF00BF00220521182066
:10383000FFF7FCFA1820FFF7E5FA1BE013492068B0
:10384000884217D100BF002000900C48006840F06B
:1038500040000A4908600846006800F040000090F7
:1038600000BF00BF002205212B20FFF7DFFA2B202D
:10387000FFF7C8FA38BD000000040040403802409D
:1038800000080040000C00400040014000180040CB
:10389000014691F83D00012801D001207047022027
:1038A00081F83D000868C06840F001000B68D860EE
:1038B0001A4B086898421BD00868B0F1804F17D0A7
:1038C000174B0868984213D0164B086898420FD0DF
:1038D000154B086898420BD0144B0868984207D0E3
:1038E000134B0868984203D0124B086898420CD1D9
:1038F0000868806800F00702062A0CD00868006893
:1039000040F001000B68186005E00868006840F0AE
:1039100001000B6818600020C0E7000000000140B3
:103920000004004000080040000C0040000401407A
:1039300000400140001800402DE9F04104460D46CA
:10394000002700BF94F83C00012802D10220BDE806
:10395000F081012084F83C0000BF022084F83D0083
:103960002068866826F0770626F47F462068866001
:103970002868502833D00CDC202850D004DC0028E4
:103980004BD0102851D149E0302849D040284CD1A3
:1039900039E060282DD0702807D0B0F5805F03D0C3
:1039A000B0F5005F41D10DE041E0D5E902136A684E
:1039B000206802F007FB2068866846F077062068DA
:1039C000866034E0D5E902136A68206802F0FAFAEA
:1039D0002068806840F480402168886027E0EA68B9
:1039E0006968206802F0DEFB5021206802F0F5FAD9
:1039F0001DE0EA686968206802F0E7FB6021206842
:103A000002F0EBFA13E0EA686968206802F0CAFB8A
:103A10004021206802F0E1FA09E000BF00BF00BFCA
:103A20002968206802F0D9FA01E0012700BF00BF31
:103A3000012084F83D0000BF002084F83C0000BF56
:103A4000384684E7704770B504462068C56820682A
:103A5000066906F00200022819D105F002000228CA
:103A600015D1401F216808610120207720688069F6
:103A700000F0030018B12046FFF7E4FF05E0204600
:103A800000F034F9204600F0E8F90020207706F035
:103A90000400042819D105F00400042815D1C043FE
:103AA00021680861022020772068806900F4407056
:103AB00018B12046FFF7C6FF05E0204600F016F9D2
:103AC000204600F0CAF90020207706F008000828F8
:103AD00019D105F00800082815D1C04321680861F4
:103AE000042020772068C06900F0030018B1204648
:103AF000FFF7A8FF05E0204600F0F8F8204600F0A8
:103B0000ACF90020207706F01000102819D105F03C
:103B10001000102815D1C0432168086108202077C3
:103B20002068C06900F4407018B12046FFF78AFF92
:103B300005E0204600F0DAF8204600F08EF900207B
:103B4000207706F0010048B105F0010030B16FF0B8
:103B5000010021680861204600F080F906F080002D
:103B6000802809D105F08000802805D1C043216854
:103B700008612046FFF75AFD06F04000402809D1B1
:103B800005F04000402805D1C04321680861204667
:103B900000F078F906F02000202809D105F0200077
:103BA000202805D1C043216808612046FFF73FFD6A
:103BB00070BD000010B586B00446142101A8FCF7C2
:103BC000A9FB4349206888423BD100BF00200090F8
:103BD0004048006840F008003E4908600846006818
:103BE00000F00800009000BF00BF00BF0020009060
:103BF0000846006840F0020008600846006800F0CF
:103C00000200009000BF00BF4FF44050019002201E
:103C100002900020039004900220059001A92E48F4
:103C2000FEF734FF4FF44070019002200290002014
:103C3000039004900220059001A92848FEF726FF72
:103C400043E02749206888421DD100BF0020009032
:103C50002048006840F010001E49086008460068CF
:103C600000F01000009000BF00BF60200190022013
:103C700002900020039004900320059001A91948A8
:103C8000FEF704FF21E01849206888421DD100BFDB
:103C9000002000900F48006840F002000D490860C5
:103CA0000846006800F00200009000BF00BF4FF41B
:103CB00040400190022002900020039004900920CF
:103CC000059001A90548FEF7E1FE06B010BD000011
:103CD0000008004030380240000C0240000402405E
:103CE00000400140001002400018004070472DE9DC
:103CF000F04104460D461646002700BF94F83C00EC
:103D0000012802D10220BDE8F081012084F83C00A6
:103D100000BF36B1042E1BD0082E31D00C2E5ED140
:103D200045E02946206802F061F92068806940F08A
:103D30000800216888612068806920F004002168FB
:103D4000886120688069296908432168886148E0A2
:103D50002946206802F082F92068806940F40060FA
:103D6000216888612068806920F48060216888610A
:103D700020688069296940EA01202168886130E073
:103D80002946206802F0A8F92068C06940F00800C0
:103D90002168C8612068C06920F004002168C861FA
:103DA0002068C069296908432168C86119E029466B
:103DB000206802F0CDF92068C06940F400602168F5
:103DC000C8612068C06920F480602168C8612068EB
:103DD000C069296940EA01202168C86101E0012722
:103DE00000BF00BF00BF002084F83C0000BF384681
:103DF00089E710B504460CB9012010BD94F83D00C8
:103E000028B9002084F83C00204600F025F8022064
:103E100084F83D00211D206802F060F8012084F83C
:103E2000460000BF84F83E0001213F20015540209C
:103E300001554120015500BF00BF012084F8420018
:103E400043200155442001554520015500BF012064
:103E500084F83D000020D0E77047704710B5044655
:103E600007492068884203D101F0DAF901F0C0FC6B
:103E70002068B0F1804F01D1FEF716FF10BD0000A1
:103E8000000400407047704710B5044600BF00BFF3
:103E900021680C3151E8001F21F4907021680C3129
:103EA00041E80002002AF3D100BF00BF00BF216833
:103EB000143151E8001F21F001002168143141E85C
:103EC0000002002AF3D100BF206B01280ED100BFF1
:103ED00000BF21680C3151E8001F21F0100021685B
:103EE0000C3141E80002002AF3D100BF206840698C
:103EF00000F04000402820D100BF00BF21681431ED
:103F000051E8001F21F040002168143141E800020F
:103F1000002AF3D100BFE06B78B10020E16B0865A7
:103F2000E06BFEF7A0FA40B1E06BFEF706FB20283D
:103F300003D110206064032010BD0020E085202004
:103F400084F842000020206300BFF5E770470000BE
:103F50002DE9F84F0446206805682068C668206887
:103F600047694FF00009CA4605F00F09B9F1000F83
:103F70000AD105F0200038B106F0200020B120461B
:103F800002F041FABDE8F88FB9F1000F7CD007F0DC
:103F9000010018B906F49070002875D005F00100F2
:103FA00030B106F4807018B1606C40F001006064BC
:103FB00005F0040030B107F0010018B1606C40F06A
:103FC0000200606405F0020030B107F0010018B192
:103FD000606C40F00400606405F0080048B106F031
:103FE000200010B907F0010018B1606C40F0080023
:103FF0006064606C002846D005F0200028B106F00F
:10400000200010B1204602F0FEF920684069C0F39C
:10401000801A606C00F0080010B9BAF1000F2DD0C2
:10402000204602F097F92068406900F040004028DF
:1040300020D100BF00BF2168143151E8001F21F0DA
:1040400040002168143141E80002002AF3D100BF8A
:10405000E06B50B17748E16B0865E06BFEF759FA09
:1040600088B1E06B016D88470DE02046FFF76EFFD9
:1040700009E009E02046FFF769FF04E02046FFF76A
:1040800065FF002060647DE7206B012878D105F092
:104090001000002874D006F010000028FAD000BFED
:1040A0000020009020680068009020684068009020
:1040B00000BF00BF2068406900F04000402860D188
:1040C000E06B006840681FFA80F8B8F1000F56D026
:1040D000A08D404553DDA4F82E80E06BC069B0F59B
:1040E000807F43D000BF00BF21680C3151E8001F22
:1040F00021F4807021680C3141E80002002AF3D1DC
:1041000000BF00BF00BF2168143151E8001F21F03B
:1041100001002168143141E80002002AF3D100BFF8
:1041200000BF00BF2168143151E8001F21F040009A
:104130002168143141E80002002AF3D100BF202099
:1041400084F842000020206300BF00BF21680C31CA
:1041500051E8001F21F0100021680C3141E80002F5
:10416000002AF3D100BFE06BFEF77DF90220606307
:10417000A08DE28D801A81B22046FFF784FE01E710
:1041800042E0A08DE18D401A1FFA80F8E08DD0B397
:10419000B8F1000F37D000BF00BF21680C3151E8E3
:1041A000001F21F4907021680C3141E80002002AC0
:1041B000F3D100BF00BF00BF2168143151E8001FD8
:1041C00021F001002168143141E80002002AF3D1F6
:1041D00000BF202084F842000020206300BF00BF01
:1041E00021680C3151E8001F21F0100021680C31CA
:1041F00041E80002002AF3D100BF0220606341467B
:104200002046FFF740FEBDE605F0800030B106F025
:10421000800018B1204602F0EFFAB3E605F0400046
:1042200030B106F0400018B1204602F0C9F8A9E606
:1042300000BFA7E61962000810B504460CB90120BA
:1042400010BDA06900B100E000BF94F8410028B99A
:10425000002084F84000204600F02AF8242084F84A
:1042600041002068C06820F400502168C8602046E2
:1042700002F048F92068006920F490402168086144
:104280002068406920F02A00216848612068C068E1
:1042900040F400502168C86000206064202084F849
:1042A000410084F842000020606300BFC8E70000BE
:1042B00010B586B00446142101A8FCF72BF8FE497E
:1042C0002068884274D100BF00200090FB4800683D
:1042D00040F40020F94908600846006800F4002016
:1042E000009000BF00BF00BF00200090F3481038CE
:1042F000006840F00100F149103908600846006884
:1043000000F00100009000BF00BF032001900220D8
:10431000029000200390032004900820059001A93A
:10432000E748FEF7B3FBE748E74908604005486007
:104330000021E5488160C1604FF480610161002186
:1043400041618161C16101624162FEF719FA08B100
:10435000FCF764FF00BFDC48E063846300BFD9481A
:104360003030DA4908604FF0006048604021D7489B
:1043700081600021C1604FF48061016100214161D1
:104380008161C16101624162FEF7FAF908B1FCF78F
:1043900045FF00BFCD48A063846300BF0022052114
:1043A0003420FEF743FD3420FEF72CFDAAE2FFE7A0
:1043B000C749206888427DD100BF00200090BF48D7
:1043C000006840F48010BD4908600846006800F4A9
:1043D0008010009000BF00BF00BF00200090B748D1
:1043E0001038006840F00400B449103908600846ED
:1043F000006800F00400009000BF00BF00BF002074
:1044000000900846006840F0080008600846006810
:1044100000F00800009000BF00BF88140190022047
:10442000029000200390032004900820059001A929
:10443000A848FEF72BFB04200190022002900020E8
:104440000390032004900820059001A9A248FEF7DC
:104450001DFB9C483038A1490860C0054860002118
:104460009E488160C1604FF480610161002141611B
:104470008161C16101624162FEF782F908B1FCF716
:10448000CDFE00BF9548E063846300BF8D4878305F
:10449000934908604FF00060486040219048816077
:1044A0000021C1604FF4806101610021416181619F
:1044B000C16100E014E001624162FEF761F908B1F8
:1044C000FCF7ACFE00BF8648A063846300BF0022F7
:1044D00005213520FEF7AAFC3520FEF793FC11E2FA
:1044E00080492068884278D100BF0020009073483E
:1044F000001D006840F010007049091D0860084662
:10450000006800F01000009000BF00BF00BF002056
:1045100000906A481038006840F00100674910397F
:1045200008600846006800F00100009000BF00BF6E
:104530004FF4C060019002200290002003900320FD
:1045400004900720059001A95D48FEF79FFA664890
:10455000664908604FF00060486000216348816050
:10456000C1604FF480610161002141618161C161DD
:1045700001624162FEF704F908B1FCF74FFE00BF8B
:104580005A48E063846300BF574878305849086050
:104590004FF0006048604021554881600021C160B3
:1045A0004FF480610161002141618161C16101625B
:1045B0004162FEF7E5F808B1FCF730FE00BF4C4859
:1045C000A063846300BF002205212520FEF72EFC96
:1045D0002520FEF717FC95E1FFE746492068884251
:1045E00068D100BF002000903448006840F40030DB
:1045F000324908600846006800F40030009000BFAF
:1046000000BF00BF002000902C481038006840F028
:1046100001002A49103908600846006800F00100CE
:10462000009000BF00BF0C200190022002900020EB
:104630000390032004900720059001A92048FEF76D
:1046400025FA204848302C4908604FF00060486047
:10465000002129488160C1604FF48061016100211F
:1046600041618161C16101624162FEF789F808B16F
:10467000FCF7D4FD00BF2048E063846300BF11480D
:1046800060301E4908604FF00060486040211B48C0
:1046900081600021C1604FF48061016100214161AE
:1046A0008161C16101624162FEF76AF808B1FCF7FD
:1046B000B5FD25E032E00000004C004040380240EB
:1046C0000000024040600240240B0020840B0020C8
:1046D0000050004000080240000C0240E40B0020A3
:1046E000440C00200010014040640240A40C002053
:1046F000040D002000440040640D0020C40D002083
:1047000000BF8148A063846300BF002205212620EA
:10471000FEF78CFB2620FEF775FBF3E07B49206853
:10472000884276D100BF002000907948006840F4AC
:104730008020774908600846006800F480200090D7
:1047400000BF00BF00BF0020009071481038006813
:1047500040F002006E49103908600846006800F019
:104760000200009000BF00BF4FF4406001900220A3
:10477000029000200390032004900720059001A9D7
:104780006448FEF783F96448644908604FF00060AC
:104790004860002161488160C1604FF4806101611F
:1047A000002141618161C16101624162FDF7E8FF61
:1047B00008B1FCF733FD00BF5848E063846300BFD5
:1047C00055483030564908604FF00060486040213D
:1047D000534881600021C1604FF480610161002174
:1047E00041618161C16101624162FDF7C9FF08B1A8
:1047F000FCF714FD00BF4A48A063846300BF002299
:1048000005212720FEF712FB2720FEF7FBFA79E0AF
:10481000FFE744492068884274D100BF002000901F
:104820003B48001D006840F020003949091D086020
:104830000846006800F02000009000BF00BF00BFE5
:104840000020009032481038006840F004003049E1
:10485000103908600846006800F00400009000BFAE
:1048600000BFC0200190022002900020039003208E
:1048700004900820059001A92B48FEF707F92B4862
:104880002B4908604FF02060486040212848816033
:104890000021C1604FF480610161002141618161AB
:1048A000C16101624162FDF76BFF08B1FCF7B6FC24
:1048B00000BF1F48A063846300BF1C4878381D49AF
:1048C00008608005486000211A488160C1604FF48B
:1048D00080610161002141618161C16101624162C8
:1048E000FDF74EFF08B1FCF799FC00BF1148E063EB
:1048F000846300BF002205214720FEF797FA472076
:10490000FEF780FA06B010BDC40D0020004800403C
:10491000403802400004024028600240240E00207B
:10492000840E00200014014000080240A0640240F0
:10493000E40E0020440F002070B504460D461646D4
:1049400094F8420020280BD105B10EB9012070BDAA
:104950000020206332462946204601F0E9FEF6E7B2
:104960000220F4E7704770472DE9F84F04460E46E1
:10497000174699464FF0000A94F84100202850D17C
:1049800006B117B90120BDE8F88F0020606421202E
:1049900084F84100FEF782F98246A784E784A06884
:1049A000B0F5805F04D1206910B90025B04602E05F
:1049B00035464FF000081EE0534600228021204675
:1049C000CDF8009001F048FF20B1202084F841008C
:1049D0000320D8E745B9B8F80000C0F30800216803
:1049E000486008F1020803E02878216848606D1CDF
:1049F000E08C401EE084E08C0028DDD1534600228C
:104A000040212046CDF8009001F026FF20B1202063
:104A100084F841000320B6E7202084F841000020FC
:104A2000B1E70220AFE7704700BFFEE710B50E48C0
:104A30000E4908600620486000210C488160C16072
:104A40004FF400310161090141610021017601212A
:104A5000417600218176C17601774177FDF7F3FA3F
:104A600008B1FCF7DBFB10BD00640040BC07002070
:104A700010B50E480E4908600620486000210C4819
:104A80008160C1604FF40031016109014161002181
:104A900001760121417600218176C1760177417747
:104AA000FDF7D1FA08B1FCF7B9FB10BD0068004072
:104AB000E407002008B500BF002000903E480068D1
:104AC00040F400103C4908600846006800F40010FB
:104AD000009000BF00BF00BF0020009008460068A3
:104AE00040F4800008600846006800F480000090F0
:104AF00000BF00BF002205210B20FEF797F90B2015
:104B0000FEF780F9002205210C20FEF78FF90C201A
:104B1000FEF778F9002205210D20FEF787F90D2018
:104B2000FEF770F9002205210E20FEF77FF90E2016
:104B3000FEF768F9002205210F20FEF777F90F2014
:104B4000FEF760F9002205211020FEF76FF9102012
:104B5000FEF758F9002205211120FEF767F9112010
:104B6000FEF750F9002205212F20FEF75FF92F20D4
:104B7000FEF748F9002205213920FEF757F93920C0
:104B8000FEF740F9002205213A20FEF74FF93A20BE
:104B9000FEF738F9002205214520FEF747F94520A8
:104BA000FEF730F9002205214620FEF73FF94620A6
:104BB000FEF728F908BD00003038024000B5B9B052
:104BC0001C22324932A8FBF78CFB002132A803F0EB
:104BD00032F92F49086004F017FB1C222B491C31C5
:104BE0002BA8FBF77EFB00212BA803F024F9294911
:104BF00008601C222549383124A8FBF772FB0021EC
:104C000024A803F018F9244908601C221F495431D4
:104C10001DA8FBF766FB00211DA803F00CF91F4936
:104C200008601C221949703116A8FBF75AFB0021B5
:104C300016A803F000F91A4908601C2213498C31A8
:104C40000FA8FBF74EFB00210FA803F0F4F815495D
:104C500008601C220D49A83108A8FBF742FB00217F
:104C600008A803F0E8F8104908601C220749C4317D
:104C700001A8FBF736FB002101A803F0DCF80B4983
:104C8000086004F0EBFA39B000BD000024A8000869
:104C90000000002004000020080000200C0000207C
:104CA0001000002014000020180000201C0000202C
:104CB00000B587B0142102A8FBF72CFB00BF002031
:104CC00001904448006840F01000424908600846DE
:104CD000006800F01000019000BF00BF00BF00207E
:104CE00001900846006840F08000086008460068AF
:104CF00000F08000019000BF00BF00BF00200190C5
:104D00000846006840F0010008600846006800F0AE
:104D10000100019000BF00BF00BF002001900846C5
:104D2000006840F0020008600846006800F00200D9
:104D3000019000BF00BF00BF00200190084600683E
:104D400040F0080008600846006800F00800019084
:104D500000BF00BF00BF002001900846006840F07F
:104D6000040008600846006800F00400019000BFDD
:104D700000BF002289141848FDF78AFF00224FF473
:104D800000611648FDF784FF4FF480500290012027
:104D9000039000200490059002A90F48FDF776FECD
:104DA0004FF40060029001200390002004900590D1
:104DB00002A90A48FDF76AFE4FF440400290002025
:104DC00003900120049002A90448FDF75FFE07B09C
:104DD00000BD00003038024000100240000C0240CC
:104DE00000B58BB000200790089009900A901C2114
:104DF0006846FBF78FFA1F481F4908605320486038
:104E000000211D4881604FF6FF71C16000210161E2
:104E10008161FEF767FC08B1FCF700FA4FF480509F
:104E2000079007A91448FEF787FD08B1FCF7F6F9CB
:104E30001148FEF7DEFF08B1FCF7F0F960200090A2
:104E40000020019002900490002269460A48FEF773
:104E50004EFF08B1FCF7E2F9042269460648FEF766
:104E600046FF08B1FCF7DAF90348FEF7A3FE0BB0E2
:104E700000BD0000001800402C09002000B587B0DC
:104E80000020039004900590069001900290144831
:104E9000144908605320486000211248816040F2A4
:104EA000E731C160002101618161FEF71BFC08B19F
:104EB000FCF7B4F94FF48050039003A90948FEF7BA
:104EC0003BFD08B1FCF7AAF900200190029001A96E
:104ED0000448FEF7ADFB08B1FCF7A0F907B000BD30
:104EE000000400400C08002000B58DB0002009909F
:104EF0000A900B900C90079008901C216846FBF7D5
:104F000009FA2C482C490860A720486000212A484B
:104F100081604FF6FF71C160002101618161FEF780
:104F2000E1FB08B1FCF77AF94FF48050099009A928
:104F30002148FEF701FD08B1FCF770F91E48FEF7A5
:104F400058FF08B1FCF76AF900200790089007A9FC
:104F50001948FEF76DFB08B1FCF760F9602000907E
:104F60000020019002900490002269461248FEF74A
:104F7000BEFE08B1FCF752F9042269460E48FEF75E
:104F8000B6FE08B1FCF74AF9082269460A48FEF75E
:104F9000AEFE08B1FCF742F90C2269460648FEF75E
:104FA000A6FE08B1FCF73AF90348FEF703FE0DB080
:104FB00000BD0000000800405408002000B587B084
:104FC00000200390049005900690019002901448F0
:104FD0001449086042F2CF00486000211148816006
:104FE000491EC160002101618161FEF77BFB08B1B0
:104FF000FCF714F94FF48050039003A90948FEF719
:105000009BFC08B1FCF70AF900200190029001A96D
:105010000448FEF70DFB08B1FCF700F907B000BD2E
:10502000000C00409C08002000B58BB000200790C9
:10503000089009900A901C216846FBF76BF91F48FD
:105040001F490860A720486000211D4881604FF675
:10505000FF71C160002101618161FEF743FB08B16E
:10506000FCF7DCF84FF48050079007A91448FEF7CE
:1050700063FC08B1FCF7D2F81148FEF7BAFE08B19C
:10508000FCF7CCF860200090002001900290049082
:10509000002269460A48FEF72AFE08B1FCF7BEF86E
:1050A000042269460648FEF722FE08B1FCF7B6F86E
:1050B0000348FEF77FFD0BB000BD0000004001403B
:1050C000E408002010B50B480B4908604FF4164067
:1050D0004860002108488160C16001610C21416184
:1050E00000218161C161FFF7A7F808B1FCF796F8CC
:1050F00010BD0000004C00407409002010B50B48A2
:105100000B4908604FF4E130486000210848816095
:10511000C16001610C21416100218161C161FFF722
:105120008BF808B1FCF77AF810BD00000050004081
:10513000BC09002010B50C480C4908600C484860B8
:105140004FF48051094881600021C1604FF48061B3
:1051500001610C21416100218161C161FFF76CF89F
:1051600008B1FCF75BF810BD00100140040A0020F4
:10517000A086010010B50B480B4908604FF4E130E0
:105180004860002108488160C16001610C214161D3
:1051900000218161C161FFF74FF808B1FCF73EF8CB
:1051A00010BD0000004400404C0A002010B50B4820
:1051B0000B4908604FF4E1304860002108488160E5
:1051C000C16001610C21416100218161C161FFF772
:1051D00033F808B1FCF722F810BD00000048004089
:1051E000940A002010B50B480B4908604FF4E130D9
:1051F0004860002108488160C16001610C21416163
:1052000000218161C161FFF717F808B1FCF706F8CA
:1052100010BD000000140140DC0A002000BFFEE7C2
:1052200010B50F4801880088401C0D4A10801429D1
:1052300015DD0020114608804FF400410948FDF7B4
:105240001FFD10B90120084908704FF4804105483E
:10525000FDF716FD10B901200449087000BF10BD0C
:10526000DC000020000C0240DA000020DB000020FF
:1052700008B502F075FD009000BF0848007810B92D
:1052800003F03EFF05E005480078012801D103F056
:10529000C1FE0A21684602F050FDEEE70E01002033
:1052A00000BFFEE710B52DED028B0446B0EE408A3C
:1052B000F0EE608A94F86D0000F0800070B1204636
:1052C00002F018FC7820005D40B19FED510A84ED9A
:1052D0000D0A9FED4F0ABDEC028B10BD84ED058ACF
:1052E000C4ED008A94ED000AD4ED050A30EE600AA0
:1052F00084ED070A94ED070AB5EEC00AF1EE10FA44
:1053000002DD94ED070A03E094ED070AB1EE400ACE
:10531000D4ED120AB4EEE00AF1EE10FA65DD94ED78
:10532000020AD4ED070A20EE200A84ED090A94ED62
:10533000030AD4ED070A20EE200A84ED0C0A94ED4E
:10534000070AD4ED080A30EE600AD4ED040A20EE14
:10535000200A84ED0B0A94F86D0000F0040010B1EF
:10536000204602F084FC94F86D0000F0200010B19B
:10537000204602F0AFFA94F86D0000F0010010B181
:10538000204602F02BFB94F86D0000F0020010B1F3
:10539000204602F016FB94F86D0000F0400010B1BA
:1053A000204602F0FBFA94ED0A0AD4ED0C0A30EE26
:1053B000200A84ED0A0A94ED090AD4ED0A0A30EEB7
:1053C000200AD4ED0B0A30EE200A84ED0D0A94F881
:1053D0006D0000F0100010B1204602F059FB20468D
:1053E00002F069FB204602F023FC94ED050A84EDEF
:1053F000060A94ED0D0A84ED0E0A94ED0B0A84ED75
:105400000F0A94ED070A84ED080A94ED0D0A62E78D
:10541000000000002DE9F0412DED088B04460D46FB
:105420001646B0EE408AF0EE608AB0EE419AF0EE99
:10543000619AB0EE42AAF0EE62AAB0EE43BAF0EE84
:1054400063BA1F460F4844F8800F0F48606054F855
:1054500080C93B46F0EE6B3AB0EE4B3AF0EE6A2A6A
:10546000B0EE4A2AF0EE691AB0EE491AF0EE680A78
:10547000B0EE480A324629462046E047BDEC088B8C
:10548000BDE8F081957B0008097C000810B51A483A
:105490000078B8B99FED190A194880ED010A90ED1E
:1054A000011AF0EE410A90ED001AB0EE410A1548DB
:1054B000FFF7F8FEBDEEC00A10EE100A00B2104968
:1054C000088318E00C480078012814D103F09CFEF2
:1054D0000D4800880C4908820020886003F0BEFE59
:1054E0009FED0A0A064880ED010A00F09FF8064881
:1054F000C0680349086110BDDB00002000A08CC516
:10550000F850002018510020A04F0020000000009B
:1055100010B500F049F8FBF767FB1948807E0528B5
:1055200029D2DFE800F003070A22250000201449F1
:10553000088321E0FFF7AAFF1EE012480078042844
:1055400008D10020104908709FED100A0C4880ED2A
:10555000010A07E001200C4908709FED0D0A084878
:1055600080ED010A00F062F806E000F0B7F803E011
:1055700000F076F800E000BF00BF00F00BF810BDAF
:10558000F8500020EC000020ED000020000000009A
:105590000080BB450248008B0249C880704700006C
:1055A000F8500020D00000200748C0680749486133
:1055B0000548B0F9040000EE100AB8EEC00A08462B
:1055C00080ED000A70470000A04F0020F850002036
:1055D0000149887670470000F850002010B500F0AF
:1055E000E1F8A223DFED0B3A9FED0A3ADFED0A2A3C
:1055F0009FED0A2ADFED0A1A9FED0A1AF0EE080A5B
:105600009FED040A002242F210710748FFF702FFE3
:1056100010BD00000000000000007A440000FA43C2
:105620006666E63F0AD7A33E1851002010B50A4827
:1056300090ED011AF0EE410A90ED001AB0EE410A29
:105640000648FFF72FFEBDEEC00A10EE100A00B2AA
:105650000149088310BD0000F850002018510020B7
:1056600010B50020174908701748B0F92A00A0F2B9
:10567000611018B1A0F23D5008BB10E09FED130A75
:10568000134880ED010A13480078022804DC9FEDDE
:10569000120A0F4880ED010AFFF7C8FF10E09FEDE6
:1056A0000B0A0B4880ED010A0A48007820B99FEDEB
:1056B0000A0A074880ED010AFFF7B8FF00E000BFC3
:1056C00000BF10BDED0000201C4F00200080BBC5B6
:1056D000F8500020EC0000200000000010B5294820
:1056E0000078052849D2DFE800F0031C041D3D00C6
:1056F00000BF2548007858B10120244908700020D7
:10570000234908709FED230A234880ED010A07E032
:105710009FED220A204880ED010A00201B490870F5
:105720002CE000BF0020184908709FED1C0A1A48A1
:1057300080ED010A01201A4908701548007840B12F
:105740000120124908709FED130A134880ED010AE9
:1057500007E09FED120A104880ED010A00200B4976
:1057600008700BE000200A490870084908709FED96
:105770000B0A094880ED010A00E000BF00BFFFF7F7
:1057800055FF10BDEC000020FC000020ED000020C3
:10579000FB0000200080BB45F85000200000000006
:1057A000FA00002000200349087048700248486051
:1057B00070470000F0000020DD8A000808B502F004
:1057C000CFFA0090FFF70AFF0DE0074803F092F9C7
:1057D000FFF79EFE02210548006802F0CBFA022185
:1057E000684602F0AAFAF0E7F0000020040000206A
:1057F0000A48007880B10A4801880088401C084A9D
:105800001080B1F5FA6F07DB01200649087000200F
:10581000114608800149087070470000FA00002016
:10582000FE000020FB00002001461C48814201D2FE
:10583000002070471A48814201D20120F9E7194837
:10584000814201D20220F4E71748814201D20320AD
:10585000EFE71648814201D20420EAE7144881426A
:1058600001D20520E5E71348814201D20620E0E796
:105870001148814201D20720DBE71048814201D262
:105880000820D6E70E48814201D20920D1E70D4811
:10589000814201D20A20CCE70B20CAE70040000871
:1058A0000080000800C00008000001080000020895
:1058B00000000408000006080000080800000A08AC
:1058C00000000C0800000E08017872292FD006DCB9
:1058D00065290DD0692931D0702933D104E07329AD
:1058E00021D074292ED107E00121184A11702AE035
:1058F0000021164A117026E08178C27841EA02211F
:105900004278134B23F812100179427941EA0221BF
:10591000827941EA0241C27941EA026142780D4B43
:1059200043F822100FE001210B4A11700BE041787F
:105930000A4A117001210A4A117004E00121094A42
:10594000117000E000BF00BF70470000CA000020D7
:10595000C2000020484F0020CC000020CB000020D7
:10596000CD000020CE00002008B502F0F9F900902B
:1059700008223449344803F0A4FB34483149083143
:1059800091E81C00C96880E81C00C16058E03048FC
:10599000007800281BD000202D4908702DA1324826
:1059A00001F076F8042002F0BCF9274802882FA104
:1059B0002D4801F06DF8042002F0B3F9234830A11E
:1059C0000268294801F064F8012032490870324821
:1059D0000078B0B108221C49304803F04FFB2F4A31
:1059E0001A4CD4E90030D4E90214C2E90414C2E923
:1059F000023006222949134801F06CF9002026499B
:105A0000087027480078B8B110482649097850F83E
:105A1000212025A1144801F03BF8012002F081F972
:105A200009482049097830F8112010A10E4801F0EA
:105A30002FF800201A4908700A21684602F07DF903
:105A4000A5E7000000000608C2000020484F002023
:105A5000CE00002073746172742E6A302E76616CF1
:105A60003D313030FFFFFF00BC09002074657374C6
:105A70002E6E302E76616C3D2564FFFFFF00000026
:105A8000746573742E6E322E76616C3D30FFFFFFAD
:105A900000000000CF000020CC000020584F002064
:105AA000CD000020CB000020746573742E6E312E63
:105AB00076616C3D2564FFFFFF00000010B53048A3
:105AC000007820B1012809D0022854D12DE000210E
:105AD0002B48C18200202A4988824CE0294800785E
